{
  "_format": "hh-sol-artifact-1",
  "contractName": "FutureToken721",
  "sourceName": "contracts/ERC721Mintable.sol",
  "abi": [
    {
      "constant": true,
      "inputs": [
        {
          "name": "interfaceId",
          "type": "bytes4"
        }
      ],
      "name": "supportsInterface",
      "outputs": [
        {
          "name": "",
          "type": "bool"
        }
      ],
      "payable": false,
      "stateMutability": "view",
      "type": "function"
    },
    {
      "constant": true,
      "inputs": [],
      "name": "name",
      "outputs": [
        {
          "name": "",
          "type": "string"
        }
      ],
      "payable": false,
      "stateMutability": "view",
      "type": "function"
    },
    {
      "constant": true,
      "inputs": [
        {
          "name": "tokenId",
          "type": "uint256"
        }
      ],
      "name": "getApproved",
      "outputs": [
        {
          "name": "",
          "type": "address"
        }
      ],
      "payable": false,
      "stateMutability": "view",
      "type": "function"
    },
    {
      "constant": false,
      "inputs": [
        {
          "name": "to",
          "type": "address"
        },
        {
          "name": "tokenId",
          "type": "uint256"
        }
      ],
      "name": "approve",
      "outputs": [],
      "payable": false,
      "stateMutability": "nonpayable",
      "type": "function"
    },
    {
      "constant": true,
      "inputs": [],
      "name": "totalSupply",
      "outputs": [
        {
          "name": "",
          "type": "uint256"
        }
      ],
      "payable": false,
      "stateMutability": "view",
      "type": "function"
    },
    {
      "constant": false,
      "inputs": [
        {
          "name": "from",
          "type": "address"
        },
        {
          "name": "to",
          "type": "address"
        },
        {
          "name": "tokenId",
          "type": "uint256"
        }
      ],
      "name": "transferFrom",
      "outputs": [],
      "payable": false,
      "stateMutability": "nonpayable",
      "type": "function"
    },
    {
      "constant": false,
      "inputs": [
        {
          "name": "_myid",
          "type": "bytes32"
        },
        {
          "name": "_result",
          "type": "string"
        }
      ],
      "name": "__callback",
      "outputs": [],
      "payable": false,
      "stateMutability": "nonpayable",
      "type": "function"
    },
    {
      "constant": true,
      "inputs": [
        {
          "name": "owner",
          "type": "address"
        },
        {
          "name": "index",
          "type": "uint256"
        }
      ],
      "name": "tokenOfOwnerByIndex",
      "outputs": [
        {
          "name": "",
          "type": "uint256"
        }
      ],
      "payable": false,
      "stateMutability": "view",
      "type": "function"
    },
    {
      "constant": false,
      "inputs": [
        {
          "name": "_myid",
          "type": "bytes32"
        },
        {
          "name": "_result",
          "type": "string"
        },
        {
          "name": "_proof",
          "type": "bytes"
        }
      ],
      "name": "__callback",
      "outputs": [],
      "payable": false,
      "stateMutability": "nonpayable",
      "type": "function"
    },
    {
      "constant": false,
      "inputs": [
        {
          "name": "from",
          "type": "address"
        },
        {
          "name": "to",
          "type": "address"
        },
        {
          "name": "tokenId",
          "type": "uint256"
        }
      ],
      "name": "safeTransferFrom",
      "outputs": [],
      "payable": false,
      "stateMutability": "nonpayable",
      "type": "function"
    },
    {
      "constant": true,
      "inputs": [
        {
          "name": "index",
          "type": "uint256"
        }
      ],
      "name": "tokenByIndex",
      "outputs": [
        {
          "name": "",
          "type": "uint256"
        }
      ],
      "payable": false,
      "stateMutability": "view",
      "type": "function"
    },
    {
      "constant": true,
      "inputs": [
        {
          "name": "tokenId",
          "type": "uint256"
        }
      ],
      "name": "ownerOf",
      "outputs": [
        {
          "name": "",
          "type": "address"
        }
      ],
      "payable": false,
      "stateMutability": "view",
      "type": "function"
    },
    {
      "constant": true,
      "inputs": [
        {
          "name": "owner",
          "type": "address"
        }
      ],
      "name": "balanceOf",
      "outputs": [
        {
          "name": "",
          "type": "uint256"
        }
      ],
      "payable": false,
      "stateMutability": "view",
      "type": "function"
    },
    {
      "constant": true,
      "inputs": [],
      "name": "getOwner",
      "outputs": [
        {
          "name": "",
          "type": "address"
        }
      ],
      "payable": false,
      "stateMutability": "view",
      "type": "function"
    },
    {
      "constant": true,
      "inputs": [],
      "name": "symbol",
      "outputs": [
        {
          "name": "",
          "type": "string"
        }
      ],
      "payable": false,
      "stateMutability": "view",
      "type": "function"
    },
    {
      "constant": false,
      "inputs": [
        {
          "name": "to",
          "type": "address"
        },
        {
          "name": "approved",
          "type": "bool"
        }
      ],
      "name": "setApprovalForAll",
      "outputs": [],
      "payable": false,
      "stateMutability": "nonpayable",
      "type": "function"
    },
    {
      "constant": false,
      "inputs": [
        {
          "name": "from",
          "type": "address"
        },
        {
          "name": "to",
          "type": "address"
        },
        {
          "name": "tokenId",
          "type": "uint256"
        },
        {
          "name": "_data",
          "type": "bytes"
        }
      ],
      "name": "safeTransferFrom",
      "outputs": [],
      "payable": false,
      "stateMutability": "nonpayable",
      "type": "function"
    },
    {
      "constant": true,
      "inputs": [
        {
          "name": "tokenId",
          "type": "uint256"
        }
      ],
      "name": "tokenURI",
      "outputs": [
        {
          "name": "",
          "type": "string"
        }
      ],
      "payable": false,
      "stateMutability": "view",
      "type": "function"
    },
    {
      "constant": false,
      "inputs": [
        {
          "name": "to",
          "type": "address"
        },
        {
          "name": "tokenId",
          "type": "uint256"
        },
        {
          "name": "tokenURI",
          "type": "string"
        }
      ],
      "name": "mint",
      "outputs": [
        {
          "name": "",
          "type": "bool"
        }
      ],
      "payable": false,
      "stateMutability": "nonpayable",
      "type": "function"
    },
    {
      "constant": true,
      "inputs": [],
      "name": "baseTokenURI",
      "outputs": [
        {
          "name": "",
          "type": "string"
        }
      ],
      "payable": false,
      "stateMutability": "view",
      "type": "function"
    },
    {
      "constant": false,
      "inputs": [
        {
          "name": "pauseState",
          "type": "bool"
        }
      ],
      "name": "changePauseState",
      "outputs": [],
      "payable": false,
      "stateMutability": "nonpayable",
      "type": "function"
    },
    {
      "constant": true,
      "inputs": [
        {
          "name": "owner",
          "type": "address"
        },
        {
          "name": "operator",
          "type": "address"
        }
      ],
      "name": "isApprovedForAll",
      "outputs": [
        {
          "name": "",
          "type": "bool"
        }
      ],
      "payable": false,
      "stateMutability": "view",
      "type": "function"
    },
    {
      "constant": false,
      "inputs": [
        {
          "name": "newOwner",
          "type": "address"
        }
      ],
      "name": "transferOwnership",
      "outputs": [],
      "payable": false,
      "stateMutability": "nonpayable",
      "type": "function"
    },
    {
      "inputs": [
        {
          "name": "tokenName",
          "type": "string"
        },
        {
          "name": "tokenSymbol",
          "type": "string"
        }
      ],
      "payable": false,
      "stateMutability": "nonpayable",
      "type": "constructor"
    },
    {
      "anonymous": false,
      "inputs": [
        {
          "indexed": true,
          "name": "from",
          "type": "address"
        },
        {
          "indexed": true,
          "name": "to",
          "type": "address"
        },
        {
          "indexed": true,
          "name": "tokenId",
          "type": "uint256"
        }
      ],
      "name": "Transfer",
      "type": "event"
    },
    {
      "anonymous": false,
      "inputs": [
        {
          "indexed": true,
          "name": "owner",
          "type": "address"
        },
        {
          "indexed": true,
          "name": "approved",
          "type": "address"
        },
        {
          "indexed": true,
          "name": "tokenId",
          "type": "uint256"
        }
      ],
      "name": "Approval",
      "type": "event"
    },
    {
      "anonymous": false,
      "inputs": [
        {
          "indexed": true,
          "name": "owner",
          "type": "address"
        },
        {
          "indexed": true,
          "name": "operator",
          "type": "address"
        },
        {
          "indexed": false,
          "name": "approved",
          "type": "bool"
        }
      ],
      "name": "ApprovalForAll",
      "type": "event"
    },
    {
      "anonymous": false,
      "inputs": [
        {
          "indexed": false,
          "name": "txnSender",
          "type": "address"
        }
      ],
      "name": "Paused",
      "type": "event"
    },
    {
      "anonymous": false,
      "inputs": [
        {
          "indexed": false,
          "name": "txnSender",
          "type": "address"
        }
      ],
      "name": "Unpaused",
      "type": "event"
    },
    {
      "anonymous": false,
      "inputs": [
        {
          "indexed": false,
          "name": "oldOwner",
          "type": "address"
        },
        {
          "indexed": false,
          "name": "newOwner",
          "type": "address"
        }
      ],
      "name": "ownershipTransferred",
      "type": "event"
    }
  ],
  "bytecode": "0x60806040523480156200001157600080fd5b50604051620033fc380380620033fc833981018060405260408110156200003757600080fd5b8101908080516401000000008111156200005057600080fd5b828101905060208101848111156200006757600080fd5b81518560018202830111640100000000821117156200008557600080fd5b50509291906020018051640100000000811115620000a257600080fd5b82810190506020810184811115620000b957600080fd5b8151856001820283011164010000000082111715620000d757600080fd5b505092919050505081816040518060600160405280603f8152602001620033bd603f9139336000806101000a81548173ffffffffffffffffffffffffffffffffffffffff021916908373ffffffffffffffffffffffffffffffffffffffff16021790555060007f7699c77f2404f9b6bbd003861bb4af8ae70b205e19e73d7ec7fe4590db59a6b7816000809054906101000a900473ffffffffffffffffffffffffffffffffffffffff16604051808373ffffffffffffffffffffffffffffffffffffffff1673ffffffffffffffffffffffffffffffffffffffff1681526020018273ffffffffffffffffffffffffffffffffffffffff1673ffffffffffffffffffffffffffffffffffffffff1681526020019250505060405180910390a15060008060146101000a81548160ff021916908315150217905550620002286301ffc9a760e01b620002c660201b60201c565b620002406380ac58cd60e01b620002c660201b60201c565b6200025863780e9d6360e01b620002c660201b60201c565b82600f90805190602001906200027092919062000368565b5081601090805190602001906200028992919062000368565b508060119080519060200190620002a292919062000368565b50620002bb635b5e139f60e01b620002c660201b60201c565b505050505062000417565b63ffffffff60e01b817bffffffffffffffffffffffffffffffffffffffffffffffffffffffff191614151515620002fc57600080fd5b6001806000837bffffffffffffffffffffffffffffffffffffffffffffffffffffffff19167bffffffffffffffffffffffffffffffffffffffffffffffffffffffff1916815260200190815260200160002060006101000a81548160ff02191690831515021790555050565b828054600181600116156101000203166002900490600052602060002090601f016020900481019282601f10620003ab57805160ff1916838001178555620003dc565b82800160010185558215620003dc579182015b82811115620003db578251825591602001919060010190620003be565b5b509050620003eb9190620003ef565b5090565b6200041491905b8082111562000410576000816000905550600101620003f6565b5090565b90565b612f9680620004276000396000f3fe608060405234801561001057600080fd5b506004361061014d5760003560e01c80636352211e116100c3578063c87b56dd1161007c578063c87b56dd1461099d578063d3fc986414610a44578063d547cfb714610b41578063d95b322114610bc4578063e985e9c514610bf4578063f2fde38b14610c705761014d565b80636352211e146106b557806370a0823114610723578063893d20e81461077b57806395d89b41146107c5578063a22cb46514610848578063b88d4fde146108985761014d565b806323b872dd1161011557806323b872dd1461031457806327dc297e146103825780632f745c591461044757806338bbfa50146104a957806342842e0e146106055780634f6ccce7146106735761014d565b806301ffc9a71461015257806306fdde03146101b7578063081812fc1461023a578063095ea7b3146102a857806318160ddd146102f6575b600080fd5b61019d6004803603602081101561016857600080fd5b8101908080357bffffffffffffffffffffffffffffffffffffffffffffffffffffffff19169060200190929190505050610cb4565b604051808215151515815260200191505060405180910390f35b6101bf610d1c565b6040518080602001828103825283818151815260200191508051906020019080838360005b838110156101ff5780820151818401526020810190506101e4565b50505050905090810190601f16801561022c5780820380516001836020036101000a031916815260200191505b509250505060405180910390f35b6102666004803603602081101561025057600080fd5b8101908080359060200190929190505050610dbe565b604051808273ffffffffffffffffffffffffffffffffffffffff1673ffffffffffffffffffffffffffffffffffffffff16815260200191505060405180910390f35b6102f4600480360360408110156102be57600080fd5b81019080803573ffffffffffffffffffffffffffffffffffffffff16906020019092919080359060200190929190505050610dfb565b005b6102fe611091565b6040518082815260200191505060405180910390f35b6103806004803603606081101561032a57600080fd5b81019080803573ffffffffffffffffffffffffffffffffffffffff169060200190929190803573ffffffffffffffffffffffffffffffffffffffff1690602001909291908035906020019092919050505061109e565b005b6104456004803603604081101561039857600080fd5b8101908080359060200190929190803590602001906401000000008111156103bf57600080fd5b8201836020820111156103d157600080fd5b803590602001918460018302840111640100000000831117156103f357600080fd5b91908080601f016020809104026020016040519081016040528093929190818152602001838380828437600081840152601f19601f8201169050808301925050505050505091929192905050506110c3565b005b6104936004803603604081101561045d57600080fd5b81019080803573ffffffffffffffffffffffffffffffffffffffff16906020019092919080359060200190929190505050611106565b6040518082815260200191505060405180910390f35b610603600480360360608110156104bf57600080fd5b8101908080359060200190929190803590602001906401000000008111156104e657600080fd5b8201836020820111156104f857600080fd5b8035906020019184600183028401116401000000008311171561051a57600080fd5b91908080601f016020809104026020016040519081016040528093929190818152602001838380828437600081840152601f19601f8201169050808301925050505050505091929192908035906020019064010000000081111561057d57600080fd5b82018360208201111561058f57600080fd5b803590602001918460018302840111640100000000831117156105b157600080fd5b91908080601f016020809104026020016040519081016040528093929190818152602001838380828437600081840152601f19601f82011690508083019250505050505050919291929050505061117d565b005b6106716004803603606081101561061b57600080fd5b81019080803573ffffffffffffffffffffffffffffffffffffffff169060200190929190803573ffffffffffffffffffffffffffffffffffffffff16906020019092919080359060200190929190505050611182565b005b61069f6004803603602081101561068957600080fd5b81019080803590602001909291905050506111a2565b6040518082815260200191505060405180910390f35b6106e1600480360360208110156106cb57600080fd5b81019080803590602001909291905050506111da565b604051808273ffffffffffffffffffffffffffffffffffffffff1673ffffffffffffffffffffffffffffffffffffffff16815260200191505060405180910390f35b6107656004803603602081101561073957600080fd5b81019080803573ffffffffffffffffffffffffffffffffffffffff169060200190929190505050611217565b6040518082815260200191505060405180910390f35b610783611267565b604051808273ffffffffffffffffffffffffffffffffffffffff1673ffffffffffffffffffffffffffffffffffffffff16815260200191505060405180910390f35b6107cd611290565b6040518080602001828103825283818151815260200191508051906020019080838360005b8381101561080d5780820151818401526020810190506107f2565b50505050905090810190601f16801561083a5780820380516001836020036101000a031916815260200191505b509250505060405180910390f35b6108966004803603604081101561085e57600080fd5b81019080803573ffffffffffffffffffffffffffffffffffffffff169060200190929190803515159060200190929190505050611332565b005b61099b600480360360808110156108ae57600080fd5b81019080803573ffffffffffffffffffffffffffffffffffffffff169060200190929190803573ffffffffffffffffffffffffffffffffffffffff169060200190929190803590602001909291908035906020019064010000000081111561091557600080fd5b82018360208201111561092757600080fd5b8035906020019184600183028401116401000000008311171561094957600080fd5b91908080601f016020809104026020016040519081016040528093929190818152602001838380828437600081840152601f19601f82011690508083019250505050505050919291929050505061146e565b005b6109c9600480360360208110156109b357600080fd5b8101908080359060200190929190505050611496565b6040518080602001828103825283818151815260200191508051906020019080838360005b83811015610a095780820151818401526020810190506109ee565b50505050905090810190601f168015610a365780820380516001836020036101000a031916815260200191505b509250505060405180910390f35b610b2760048036036060811015610a5a57600080fd5b81019080803573ffffffffffffffffffffffffffffffffffffffff1690602001909291908035906020019092919080359060200190640100000000811115610aa157600080fd5b820183602082011115610ab357600080fd5b80359060200191846001830284011164010000000083111715610ad557600080fd5b91908080601f016020809104026020016040519081016040528093929190818152602001838380828437600081840152601f19601f82011690508083019250505050505050919291929050505061155f565b604051808215151515815260200191505060405180910390f35b610b49611643565b6040518080602001828103825283818151815260200191508051906020019080838360005b83811015610b89578082015181840152602081019050610b6e565b50505050905090810190601f168015610bb65780820380516001836020036101000a031916815260200191505b509250505060405180910390f35b610bf260048036036020811015610bda57600080fd5b810190808035151590602001909291905050506116e5565b005b610c5660048036036040811015610c0a57600080fd5b81019080803573ffffffffffffffffffffffffffffffffffffffff169060200190929190803573ffffffffffffffffffffffffffffffffffffffff1690602001909291905050506118c4565b604051808215151515815260200191505060405180910390f35b610cb260048036036020811015610c8657600080fd5b81019080803573ffffffffffffffffffffffffffffffffffffffff169060200190929190505050611958565b005b600060016000837bffffffffffffffffffffffffffffffffffffffffffffffffffffffff19167bffffffffffffffffffffffffffffffffffffffffffffffffffffffff1916815260200190815260200160002060009054906101000a900460ff169050919050565b6060600f8054600181600116156101000203166002900480601f016020809104026020016040519081016040528092919081815260200182805460018160011615610100020316600290048015610db45780601f10610d8957610100808354040283529160200191610db4565b820191906000526020600020905b815481529060010190602001808311610d9757829003601f168201915b5050505050905090565b60006003600083815260200190815260200160002060009054906101000a900473ffffffffffffffffffffffffffffffffffffffff169050919050565b610e03611267565b73ffffffffffffffffffffffffffffffffffffffff168273ffffffffffffffffffffffffffffffffffffffff1614151515610e89576040517f08c379a0000000000000000000000000000000000000000000000000000000008152600401808060200182810382526035815260200180612f036035913960400191505060405180910390fd5b60006002600083815260200190815260200160002060009054906101000a900473ffffffffffffffffffffffffffffffffffffffff169050610ec9611267565b73ffffffffffffffffffffffffffffffffffffffff163373ffffffffffffffffffffffffffffffffffffffff161480610f885750600560008273ffffffffffffffffffffffffffffffffffffffff1673ffffffffffffffffffffffffffffffffffffffff16815260200190815260200160002060003373ffffffffffffffffffffffffffffffffffffffff1673ffffffffffffffffffffffffffffffffffffffff16815260200190815260200160002060009054906101000a900460ff165b1515610fdf576040517f08c379a0000000000000000000000000000000000000000000000000000000008152600401808060200182810382526033815260200180612f386033913960400191505060405180910390fd5b826003600084815260200190815260200160002060006101000a81548173ffffffffffffffffffffffffffffffffffffffff021916908373ffffffffffffffffffffffffffffffffffffffff160217905550818373ffffffffffffffffffffffffffffffffffffffff168273ffffffffffffffffffffffffffffffffffffffff167f8c5be1e5ebec7d5bd14f71427d1e84f3dd0314c0f7b2291e5b200ac8c7c3b92560405160405180910390a4505050565b6000600880549050905090565b6110a83382611b17565b15156110b357600080fd5b6110be838383611bac565b505050565b611102828260006040519080825280601f01601f1916602001820160405280156110fc5781602001600182028038833980820191505090505b5061117d565b5050565b600061111183611217565b8210151561111e57600080fd5b600660008473ffffffffffffffffffffffffffffffffffffffff1673ffffffffffffffffffffffffffffffffffffffff1681526020019081526020016000208281548110151561116a57fe5b9060005260206000200154905092915050565b505050565b61119d8383836040518060200160405280600081525061146e565b505050565b60006111ac611091565b821015156111b957600080fd5b6008828154811015156111c857fe5b90600052602060002001549050919050565b60006002600083815260200190815260200160002060009054906101000a900473ffffffffffffffffffffffffffffffffffffffff169050919050565b6000611260600460008473ffffffffffffffffffffffffffffffffffffffff1673ffffffffffffffffffffffffffffffffffffffff168152602001908152602001600020611bd0565b9050919050565b60008060009054906101000a900473ffffffffffffffffffffffffffffffffffffffff16905090565b606060108054600181600116156101000203166002900480601f0160208091040260200160405190810160405280929190818152602001828054600181600116156101000203166002900480156113285780601f106112fd57610100808354040283529160200191611328565b820191906000526020600020905b81548152906001019060200180831161130b57829003601f168201915b5050505050905090565b3373ffffffffffffffffffffffffffffffffffffffff168273ffffffffffffffffffffffffffffffffffffffff161415151561136d57600080fd5b80600560003373ffffffffffffffffffffffffffffffffffffffff1673ffffffffffffffffffffffffffffffffffffffff16815260200190815260200160002060008473ffffffffffffffffffffffffffffffffffffffff1673ffffffffffffffffffffffffffffffffffffffff16815260200190815260200160002060006101000a81548160ff0219169083151502179055508173ffffffffffffffffffffffffffffffffffffffff163373ffffffffffffffffffffffffffffffffffffffff167f17307eab39ab6107e8899845ad3d59bd9653f200f220920489ca2b5937696c3183604051808215151515815260200191505060405180910390a35050565b61147984848461109e565b61148584848484611bde565b151561149057600080fd5b50505050565b60606114a182611dc9565b15156114ac57600080fd5b601260008381526020019081526020016000208054600181600116156101000203166002900480601f0160208091040260200160405190810160405280929190818152602001828054600181600116156101000203166002900480156115535780601f1061152857610100808354040283529160200191611553565b820191906000526020600020905b81548152906001019060200180831161153657829003601f168201915b50505050509050919050565b60008060009054906101000a900473ffffffffffffffffffffffffffffffffffffffff1673ffffffffffffffffffffffffffffffffffffffff163373ffffffffffffffffffffffffffffffffffffffff16141515611625576040517f08c379a000000000000000000000000000000000000000000000000000000000815260040180806020018281038252601c8152602001807f43616c6c6572206973206e6f7420636f6e7472616374206f776e65720000000081525060200191505060405180910390fd5b61162f8484611e3b565b61163883611e5c565b600190509392505050565b606060118054600181600116156101000203166002900480601f0160208091040260200160405190810160405280929190818152602001828054600181600116156101000203166002900480156116db5780601f106116b0576101008083540402835291602001916116db565b820191906000526020600020905b8154815290600101906020018083116116be57829003601f168201915b5050505050905090565b6000809054906101000a900473ffffffffffffffffffffffffffffffffffffffff1673ffffffffffffffffffffffffffffffffffffffff163373ffffffffffffffffffffffffffffffffffffffff161415156117a9576040517f08c379a000000000000000000000000000000000000000000000000000000000815260040180806020018281038252601c8152602001807f43616c6c6572206973206e6f7420636f6e7472616374206f776e65720000000081525060200191505060405180910390fd5b801515600060149054906101000a900460ff1615151415156118c15780600060146101000a81548160ff021916908315150217905550600060149054906101000a900460ff161561185c577f62e78cea01bee320cd4e420270b5ea74000d11b0c9f74754ebdbfc544b05a25833604051808273ffffffffffffffffffffffffffffffffffffffff1673ffffffffffffffffffffffffffffffffffffffff16815260200191505060405180910390a16118c0565b7f5db9ee0a495bf2e6ff9c91a7834c1ba4fdd244a5e8aa4e537bd38aeae4b073aa33604051808273ffffffffffffffffffffffffffffffffffffffff1673ffffffffffffffffffffffffffffffffffffffff16815260200191505060405180910390a15b5b50565b6000600560008473ffffffffffffffffffffffffffffffffffffffff1673ffffffffffffffffffffffffffffffffffffffff16815260200190815260200160002060008373ffffffffffffffffffffffffffffffffffffffff1673ffffffffffffffffffffffffffffffffffffffff16815260200190815260200160002060009054906101000a900460ff16905092915050565b6000809054906101000a900473ffffffffffffffffffffffffffffffffffffffff1673ffffffffffffffffffffffffffffffffffffffff163373ffffffffffffffffffffffffffffffffffffffff16141515611a1c576040517f08c379a000000000000000000000000000000000000000000000000000000000815260040180806020018281038252601c8152602001807f43616c6c6572206973206e6f7420636f6e7472616374206f776e65720000000081525060200191505060405180910390fd5b806000806101000a81548173ffffffffffffffffffffffffffffffffffffffff021916908373ffffffffffffffffffffffffffffffffffffffff1602179055507f7699c77f2404f9b6bbd003861bb4af8ae70b205e19e73d7ec7fe4590db59a6b7336000809054906101000a900473ffffffffffffffffffffffffffffffffffffffff16604051808373ffffffffffffffffffffffffffffffffffffffff1673ffffffffffffffffffffffffffffffffffffffff1681526020018273ffffffffffffffffffffffffffffffffffffffff1673ffffffffffffffffffffffffffffffffffffffff1681526020019250505060405180910390a150565b600080611b23836111da565b90508073ffffffffffffffffffffffffffffffffffffffff168473ffffffffffffffffffffffffffffffffffffffff161480611b9257508373ffffffffffffffffffffffffffffffffffffffff16611b7a84610dbe565b73ffffffffffffffffffffffffffffffffffffffff16145b80611ba35750611ba281856118c4565b5b91505092915050565b611bb7838383611f52565b611bc18382612260565b611bcb8282612404565b505050565b600081600001549050919050565b6000611bff8473ffffffffffffffffffffffffffffffffffffffff166124cb565b1515611c0e5760019050611dc1565b60008473ffffffffffffffffffffffffffffffffffffffff1663150b7a02338887876040518563ffffffff1660e01b8152600401808573ffffffffffffffffffffffffffffffffffffffff1673ffffffffffffffffffffffffffffffffffffffff1681526020018473ffffffffffffffffffffffffffffffffffffffff1673ffffffffffffffffffffffffffffffffffffffff16815260200183815260200180602001828103825283818151815260200191508051906020019080838360005b83811015611ce9578082015181840152602081019050611cce565b50505050905090810190601f168015611d165780820380516001836020036101000a031916815260200191505b5095505050505050602060405180830381600087803b158015611d3857600080fd5b505af1158015611d4c573d6000803e3d6000fd5b505050506040513d6020811015611d6257600080fd5b8101908080519060200190929190505050905063150b7a0260e01b7bffffffffffffffffffffffffffffffffffffffffffffffffffffffff1916817bffffffffffffffffffffffffffffffffffffffffffffffffffffffff1916149150505b949350505050565b6000806002600084815260200190815260200160002060009054906101000a900473ffffffffffffffffffffffffffffffffffffffff169050600073ffffffffffffffffffffffffffffffffffffffff168173ffffffffffffffffffffffffffffffffffffffff161415915050919050565b611e458282612516565b611e4f8282612404565b611e5881612712565b5050565b611e6581611dc9565b1515611e7057600080fd5b6060611e7b8261275e565b90506060611f2360118054600181600116156101000203166002900480601f016020809104026020016040519081016040528092919081815260200182805460018160011615610100020316600290048015611f185780601f10611eed57610100808354040283529160200191611f18565b820191906000526020600020905b815481529060010190602001808311611efb57829003601f168201915b505050505083612898565b905080601260008581526020019081526020016000209080519060200190611f4c929190612e31565b50505050565b6002600082815260200190815260200160002060009054906101000a900473ffffffffffffffffffffffffffffffffffffffff1673ffffffffffffffffffffffffffffffffffffffff168373ffffffffffffffffffffffffffffffffffffffff16141515612028576040517f08c379a000000000000000000000000000000000000000000000000000000000815260040180806020018281038252601c8152602001807f46726f6d20616464726573732073686f756c64206265206f776e65720000000081525060200191505060405180910390fd5b600073ffffffffffffffffffffffffffffffffffffffff168273ffffffffffffffffffffffffffffffffffffffff16141515156120cd576040517f08c379a000000000000000000000000000000000000000000000000000000000815260040180806020018281038252601a8152602001807f56616c69642061646472657373206e6f742070726f766964656400000000000081525060200191505060405180910390fd5b60006003600083815260200190815260200160002060006101000a81548173ffffffffffffffffffffffffffffffffffffffff021916908373ffffffffffffffffffffffffffffffffffffffff160217905550612167600460008573ffffffffffffffffffffffffffffffffffffffff1673ffffffffffffffffffffffffffffffffffffffff1681526020019081526020016000206128dc565b816002600083815260200190815260200160002060006101000a81548173ffffffffffffffffffffffffffffffffffffffff021916908373ffffffffffffffffffffffffffffffffffffffff160217905550612200600460008473ffffffffffffffffffffffffffffffffffffffff1673ffffffffffffffffffffffffffffffffffffffff1681526020019081526020016000206128ff565b808273ffffffffffffffffffffffffffffffffffffffff168473ffffffffffffffffffffffffffffffffffffffff167fddf252ad1be2c89b69c2b068fc378daa952ba7f163c4a11628f55a4df523b3ef60405160405180910390a4505050565b60006122b86001600660008673ffffffffffffffffffffffffffffffffffffffff1673ffffffffffffffffffffffffffffffffffffffff1681526020019081526020016000208054905061291590919063ffffffff16565b905060006007600084815260200190815260200160002054905081811415156123ab576000600660008673ffffffffffffffffffffffffffffffffffffffff1673ffffffffffffffffffffffffffffffffffffffff1681526020019081526020016000208381548110151561232957fe5b9060005260206000200154905080600660008773ffffffffffffffffffffffffffffffffffffffff1673ffffffffffffffffffffffffffffffffffffffff1681526020019081526020016000208381548110151561238357fe5b9060005260206000200181905550816007600083815260200190815260200160002081905550505b600660008573ffffffffffffffffffffffffffffffffffffffff1673ffffffffffffffffffffffffffffffffffffffff1681526020019081526020016000208054809190600190036123fd9190612eb1565b5050505050565b600660008373ffffffffffffffffffffffffffffffffffffffff1673ffffffffffffffffffffffffffffffffffffffff168152602001908152602001600020805490506007600083815260200190815260200160002081905550600660008373ffffffffffffffffffffffffffffffffffffffff1673ffffffffffffffffffffffffffffffffffffffff1681526020019081526020016000208190806001815401808255809150509060018203906000526020600020016000909192909190915055505050565b60008060007fc5d2460186f7233c927e7db2dcc703c0e500b653ca82273b7bfad8045d85a47060001b9050833f915080821415801561250d57506000801b8214155b92505050919050565b61251f81611dc9565b151515612594576040517f08c379a00000000000000000000000000000000000000000000000000000000081526004018080602001828103825260148152602001807f746f6b656e20616c72656164792065786973747300000000000000000000000081525060200191505060405180910390fd5b816002600083815260200190815260200160002060006101000a81548173ffffffffffffffffffffffffffffffffffffffff021916908373ffffffffffffffffffffffffffffffffffffffff16021790555061262d600460008473ffffffffffffffffffffffffffffffffffffffff1673ffffffffffffffffffffffffffffffffffffffff1681526020019081526020016000206128ff565b6126b26040518060400160405280601081526020017f746f6b656e20636f756e74203d202564000000000000000000000000000000008152506126ad600460008673ffffffffffffffffffffffffffffffffffffffff1673ffffffffffffffffffffffffffffffffffffffff168152602001908152602001600020611bd0565b61295f565b808273ffffffffffffffffffffffffffffffffffffffff16600073ffffffffffffffffffffffffffffffffffffffff167fddf252ad1be2c89b69c2b068fc378daa952ba7f163c4a11628f55a4df523b3ef60405160405180910390a45050565b6008805490506009600083815260200190815260200160002081905550600881908060018154018082558091505090600182039060005260206000200160009091929091909150555050565b606060008214156127a6576040518060400160405280600181526020017f30000000000000000000000000000000000000000000000000000000000000008152509050612893565b600082905060005b6000821415156127d4578080600101915050600a828115156127cc57fe5b0491506127ae565b6060816040519080825280601f01601f1916602001820160405280156128095781602001600182028038833980820191505090505b50905060006001830390505b60008614151561288b57600a8681151561282b57fe5b0660300160f81b82828060019003935081518110151561284757fe5b9060200101907effffffffffffffffffffffffffffffffffffffffffffffffffffffffffffff1916908160001a905350600a8681151561288357fe5b049550612815565b819450505050505b919050565b60606128d48383604051806020016040528060008152506040518060200160405280600081525060405180602001604052806000815250612a66565b905092915050565b6128f46001826000015461291590919063ffffffff16565b816000018190555050565b6001816000016000828254019250508190555050565b600061295783836040518060400160405280601e81526020017f536166654d6174683a207375627472616374696f6e206f766572666c6f770000815250612d46565b905092915050565b612a6282826040516024018080602001838152602001828103825284818151815260200191508051906020019080838360005b838110156129ad578082015181840152602081019050612992565b50505050905090810190601f1680156129da5780820380516001836020036101000a031916815260200191505b5093505050506040516020818303038152906040527f9710a9d0000000000000000000000000000000000000000000000000000000007bffffffffffffffffffffffffffffffffffffffffffffffffffffffff19166020820180517bffffffffffffffffffffffffffffffffffffffffffffffffffffffff8381831617835250505050612e08565b5050565b6060808690506060869050606086905060608690506060869050606081518351855187518951010101016040519080825280601f01601f191660200182016040528015612ac25781602001600182028038833980820191505090505b509050606081905060008090506000809050600090505b8851811015612b4d578881815181101515612af057fe5b90602001015160f81c60f81b8383806001019450815181101515612b1057fe5b9060200101907effffffffffffffffffffffffffffffffffffffffffffffffffffffffffffff1916908160001a9053508080600101915050612ad9565b600090505b8751811015612bc6578781815181101515612b6957fe5b90602001015160f81c60f81b8383806001019450815181101515612b8957fe5b9060200101907effffffffffffffffffffffffffffffffffffffffffffffffffffffffffffff1916908160001a9053508080600101915050612b52565b600090505b8651811015612c3f578681815181101515612be257fe5b90602001015160f81c60f81b8383806001019450815181101515612c0257fe5b9060200101907effffffffffffffffffffffffffffffffffffffffffffffffffffffffffffff1916908160001a9053508080600101915050612bcb565b600090505b8551811015612cb8578581815181101515612c5b57fe5b90602001015160f81c60f81b8383806001019450815181101515612c7b57fe5b9060200101907effffffffffffffffffffffffffffffffffffffffffffffffffffffffffffff1916908160001a9053508080600101915050612c44565b600090505b8451811015612d31578481815181101515612cd457fe5b90602001015160f81c60f81b8383806001019450815181101515612cf457fe5b9060200101907effffffffffffffffffffffffffffffffffffffffffffffffffffffffffffff1916908160001a9053508080600101915050612cbd565b82995050505050505050505095945050505050565b60008383111582901515612df5576040517f08c379a00000000000000000000000000000000000000000000000000000000081526004018080602001828103825283818151815260200191508051906020019080838360005b83811015612dba578082015181840152602081019050612d9f565b50505050905090810190601f168015612de75780820380516001836020036101000a031916815260200191505b509250505060405180910390fd5b5060008385039050809150509392505050565b60008151905060006a636f6e736f6c652e6c6f679050602083016000808483855afa5050505050565b828054600181600116156101000203166002900490600052602060002090601f016020900481019282601f10612e7257805160ff1916838001178555612ea0565b82800160010185558215612ea0579182015b82811115612e9f578251825591602001919060010190612e84565b5b509050612ead9190612edd565b5090565b815481835581811115612ed857818360005260206000209182019101612ed79190612edd565b5b505050565b612eff91905b80821115612efb576000816000905550600101612ee3565b5090565b9056fe50617373656420616464726573732073686f756c64206e6f7420626520746865206f776e6572206f662074686520746f656b6e49646d6573736167652073656e6465722073686f756c64206265206f776e6572206f7220617070726f766564206f70657261746f72a165627a7a723058202124b46af66e5799815d47f7f2af4c325ec8904436e7f5c5a46c4998e4a9c4d9002968747470733a2f2f73332d75732d776573742d322e616d617a6f6e6177732e636f6d2f756461636974792d626c6f636b636861696e2f63617073746f6e652f",
  "linkReferences": {},
  "deployedLinkReferences": {}
}