{
  "_format": "hh-sol-artifact-1",
  "contractName": "SolnSquareVerifier",
  "sourceName": "contracts/SolnSquareVerifier.sol",
  "abi": [
    {
      "constant": true,
      "inputs": [
        {
          "name": "interfaceId",
          "type": "bytes4"
        }
      ],
      "name": "supportsInterface",
      "outputs": [
        {
          "name": "",
          "type": "bool"
        }
      ],
      "payable": false,
      "stateMutability": "view",
      "type": "function"
    },
    {
      "constant": true,
      "inputs": [],
      "name": "name",
      "outputs": [
        {
          "name": "",
          "type": "string"
        }
      ],
      "payable": false,
      "stateMutability": "view",
      "type": "function"
    },
    {
      "constant": true,
      "inputs": [
        {
          "name": "tokenId",
          "type": "uint256"
        }
      ],
      "name": "getApproved",
      "outputs": [
        {
          "name": "",
          "type": "address"
        }
      ],
      "payable": false,
      "stateMutability": "view",
      "type": "function"
    },
    {
      "constant": false,
      "inputs": [
        {
          "name": "to",
          "type": "address"
        },
        {
          "name": "tokenId",
          "type": "uint256"
        }
      ],
      "name": "approve",
      "outputs": [],
      "payable": false,
      "stateMutability": "nonpayable",
      "type": "function"
    },
    {
      "constant": true,
      "inputs": [
        {
          "name": "a",
          "type": "uint256[2]"
        },
        {
          "name": "b",
          "type": "uint256[2][2]"
        },
        {
          "name": "c",
          "type": "uint256[2]"
        },
        {
          "name": "inputs",
          "type": "uint256[2]"
        }
      ],
      "name": "checkSolution",
      "outputs": [
        {
          "name": "",
          "type": "bool"
        }
      ],
      "payable": false,
      "stateMutability": "view",
      "type": "function"
    },
    {
      "constant": true,
      "inputs": [],
      "name": "totalSupply",
      "outputs": [
        {
          "name": "",
          "type": "uint256"
        }
      ],
      "payable": false,
      "stateMutability": "view",
      "type": "function"
    },
    {
      "constant": false,
      "inputs": [
        {
          "name": "from",
          "type": "address"
        },
        {
          "name": "to",
          "type": "address"
        },
        {
          "name": "tokenId",
          "type": "uint256"
        }
      ],
      "name": "transferFrom",
      "outputs": [],
      "payable": false,
      "stateMutability": "nonpayable",
      "type": "function"
    },
    {
      "constant": false,
      "inputs": [
        {
          "name": "_myid",
          "type": "bytes32"
        },
        {
          "name": "_result",
          "type": "string"
        }
      ],
      "name": "__callback",
      "outputs": [],
      "payable": false,
      "stateMutability": "nonpayable",
      "type": "function"
    },
    {
      "constant": true,
      "inputs": [
        {
          "name": "owner",
          "type": "address"
        },
        {
          "name": "index",
          "type": "uint256"
        }
      ],
      "name": "tokenOfOwnerByIndex",
      "outputs": [
        {
          "name": "",
          "type": "uint256"
        }
      ],
      "payable": false,
      "stateMutability": "view",
      "type": "function"
    },
    {
      "constant": false,
      "inputs": [
        {
          "name": "_myid",
          "type": "bytes32"
        },
        {
          "name": "_result",
          "type": "string"
        },
        {
          "name": "_proof",
          "type": "bytes"
        }
      ],
      "name": "__callback",
      "outputs": [],
      "payable": false,
      "stateMutability": "nonpayable",
      "type": "function"
    },
    {
      "constant": false,
      "inputs": [
        {
          "name": "from",
          "type": "address"
        },
        {
          "name": "to",
          "type": "address"
        },
        {
          "name": "tokenId",
          "type": "uint256"
        }
      ],
      "name": "safeTransferFrom",
      "outputs": [],
      "payable": false,
      "stateMutability": "nonpayable",
      "type": "function"
    },
    {
      "constant": true,
      "inputs": [
        {
          "name": "index",
          "type": "uint256"
        }
      ],
      "name": "tokenByIndex",
      "outputs": [
        {
          "name": "",
          "type": "uint256"
        }
      ],
      "payable": false,
      "stateMutability": "view",
      "type": "function"
    },
    {
      "constant": true,
      "inputs": [
        {
          "name": "tokenId",
          "type": "uint256"
        }
      ],
      "name": "ownerOf",
      "outputs": [
        {
          "name": "",
          "type": "address"
        }
      ],
      "payable": false,
      "stateMutability": "view",
      "type": "function"
    },
    {
      "constant": true,
      "inputs": [
        {
          "name": "owner",
          "type": "address"
        }
      ],
      "name": "balanceOf",
      "outputs": [
        {
          "name": "",
          "type": "uint256"
        }
      ],
      "payable": false,
      "stateMutability": "view",
      "type": "function"
    },
    {
      "constant": true,
      "inputs": [],
      "name": "getOwner",
      "outputs": [
        {
          "name": "",
          "type": "address"
        }
      ],
      "payable": false,
      "stateMutability": "view",
      "type": "function"
    },
    {
      "constant": true,
      "inputs": [],
      "name": "symbol",
      "outputs": [
        {
          "name": "",
          "type": "string"
        }
      ],
      "payable": false,
      "stateMutability": "view",
      "type": "function"
    },
    {
      "constant": true,
      "inputs": [
        {
          "name": "a",
          "type": "uint256[2]"
        },
        {
          "name": "b",
          "type": "uint256[2][2]"
        },
        {
          "name": "c",
          "type": "uint256[2]"
        },
        {
          "name": "inputs",
          "type": "uint256[2]"
        }
      ],
      "name": "getSolutionKey",
      "outputs": [
        {
          "name": "",
          "type": "bytes32"
        }
      ],
      "payable": false,
      "stateMutability": "pure",
      "type": "function"
    },
    {
      "constant": false,
      "inputs": [
        {
          "name": "to",
          "type": "address"
        },
        {
          "name": "approved",
          "type": "bool"
        }
      ],
      "name": "setApprovalForAll",
      "outputs": [],
      "payable": false,
      "stateMutability": "nonpayable",
      "type": "function"
    },
    {
      "constant": false,
      "inputs": [
        {
          "name": "from",
          "type": "address"
        },
        {
          "name": "to",
          "type": "address"
        },
        {
          "name": "tokenId",
          "type": "uint256"
        },
        {
          "name": "_data",
          "type": "bytes"
        }
      ],
      "name": "safeTransferFrom",
      "outputs": [],
      "payable": false,
      "stateMutability": "nonpayable",
      "type": "function"
    },
    {
      "constant": true,
      "inputs": [
        {
          "name": "tokenId",
          "type": "uint256"
        }
      ],
      "name": "tokenURI",
      "outputs": [
        {
          "name": "",
          "type": "string"
        }
      ],
      "payable": false,
      "stateMutability": "view",
      "type": "function"
    },
    {
      "constant": false,
      "inputs": [
        {
          "name": "to",
          "type": "address"
        },
        {
          "name": "tokenId",
          "type": "uint256"
        },
        {
          "name": "tokenURI",
          "type": "string"
        }
      ],
      "name": "mint",
      "outputs": [
        {
          "name": "",
          "type": "bool"
        }
      ],
      "payable": false,
      "stateMutability": "nonpayable",
      "type": "function"
    },
    {
      "constant": true,
      "inputs": [],
      "name": "baseTokenURI",
      "outputs": [
        {
          "name": "",
          "type": "string"
        }
      ],
      "payable": false,
      "stateMutability": "view",
      "type": "function"
    },
    {
      "constant": false,
      "inputs": [
        {
          "name": "pauseState",
          "type": "bool"
        }
      ],
      "name": "changePauseState",
      "outputs": [],
      "payable": false,
      "stateMutability": "nonpayable",
      "type": "function"
    },
    {
      "constant": true,
      "inputs": [
        {
          "name": "owner",
          "type": "address"
        },
        {
          "name": "operator",
          "type": "address"
        }
      ],
      "name": "isApprovedForAll",
      "outputs": [
        {
          "name": "",
          "type": "bool"
        }
      ],
      "payable": false,
      "stateMutability": "view",
      "type": "function"
    },
    {
      "constant": false,
      "inputs": [
        {
          "name": "newOwner",
          "type": "address"
        }
      ],
      "name": "transferOwnership",
      "outputs": [],
      "payable": false,
      "stateMutability": "nonpayable",
      "type": "function"
    },
    {
      "constant": false,
      "inputs": [
        {
          "name": "addr",
          "type": "address"
        },
        {
          "name": "tokenId",
          "type": "uint256"
        },
        {
          "name": "a",
          "type": "uint256[2]"
        },
        {
          "name": "b",
          "type": "uint256[2][2]"
        },
        {
          "name": "c",
          "type": "uint256[2]"
        },
        {
          "name": "inputs",
          "type": "uint256[2]"
        }
      ],
      "name": "mint",
      "outputs": [
        {
          "name": "",
          "type": "bool"
        }
      ],
      "payable": false,
      "stateMutability": "nonpayable",
      "type": "function"
    },
    {
      "inputs": [
        {
          "name": "verifierAddress",
          "type": "address"
        },
        {
          "name": "tokenName",
          "type": "string"
        },
        {
          "name": "tokenSymbol",
          "type": "string"
        }
      ],
      "payable": false,
      "stateMutability": "nonpayable",
      "type": "constructor"
    },
    {
      "anonymous": false,
      "inputs": [
        {
          "indexed": false,
          "name": "tokenId",
          "type": "string"
        },
        {
          "indexed": false,
          "name": "inputs",
          "type": "uint256[2]"
        }
      ],
      "name": "SolutionAdded",
      "type": "event"
    },
    {
      "anonymous": false,
      "inputs": [
        {
          "indexed": true,
          "name": "from",
          "type": "address"
        },
        {
          "indexed": true,
          "name": "to",
          "type": "address"
        },
        {
          "indexed": true,
          "name": "tokenId",
          "type": "uint256"
        }
      ],
      "name": "Transfer",
      "type": "event"
    },
    {
      "anonymous": false,
      "inputs": [
        {
          "indexed": true,
          "name": "owner",
          "type": "address"
        },
        {
          "indexed": true,
          "name": "approved",
          "type": "address"
        },
        {
          "indexed": true,
          "name": "tokenId",
          "type": "uint256"
        }
      ],
      "name": "Approval",
      "type": "event"
    },
    {
      "anonymous": false,
      "inputs": [
        {
          "indexed": true,
          "name": "owner",
          "type": "address"
        },
        {
          "indexed": true,
          "name": "operator",
          "type": "address"
        },
        {
          "indexed": false,
          "name": "approved",
          "type": "bool"
        }
      ],
      "name": "ApprovalForAll",
      "type": "event"
    },
    {
      "anonymous": false,
      "inputs": [
        {
          "indexed": false,
          "name": "txnSender",
          "type": "address"
        }
      ],
      "name": "Paused",
      "type": "event"
    },
    {
      "anonymous": false,
      "inputs": [
        {
          "indexed": false,
          "name": "txnSender",
          "type": "address"
        }
      ],
      "name": "Unpaused",
      "type": "event"
    },
    {
      "anonymous": false,
      "inputs": [
        {
          "indexed": false,
          "name": "oldOwner",
          "type": "address"
        },
        {
          "indexed": false,
          "name": "newOwner",
          "type": "address"
        }
      ],
      "name": "ownershipTransferred",
      "type": "event"
    }
  ],
  "bytecode": "0x60806040523480156200001157600080fd5b5060405162003f6e38038062003f6e833981018060405260608110156200003757600080fd5b810190808051906020019092919080516401000000008111156200005a57600080fd5b828101905060208101848111156200007157600080fd5b81518560018202830111640100000000821117156200008f57600080fd5b50509291906020018051640100000000811115620000ac57600080fd5b82810190506020810184811115620000c357600080fd5b8151856001820283011164010000000082111715620000e157600080fd5b5050929190505050818181816040518060600160405280603f815260200162003f2f603f9139336000806101000a81548173ffffffffffffffffffffffffffffffffffffffff021916908373ffffffffffffffffffffffffffffffffffffffff16021790555060007f7699c77f2404f9b6bbd003861bb4af8ae70b205e19e73d7ec7fe4590db59a6b7816000809054906101000a900473ffffffffffffffffffffffffffffffffffffffff16604051808373ffffffffffffffffffffffffffffffffffffffff1673ffffffffffffffffffffffffffffffffffffffff1681526020018273ffffffffffffffffffffffffffffffffffffffff1673ffffffffffffffffffffffffffffffffffffffff1681526020019250505060405180910390a15060008060146101000a81548160ff021916908315150217905550620002346301ffc9a760e01b6200031660201b60201c565b6200024c6380ac58cd60e01b6200031660201b60201c565b6200026463780e9d6360e01b6200031660201b60201c565b82600f90805190602001906200027c929190620003b8565b50816010908051906020019062000295929190620003b8565b508060119080519060200190620002ae929190620003b8565b50620002c7635b5e139f60e01b6200031660201b60201c565b505050505082601360006101000a81548173ffffffffffffffffffffffffffffffffffffffff021916908373ffffffffffffffffffffffffffffffffffffffff16021790555050505062000467565b63ffffffff60e01b817bffffffffffffffffffffffffffffffffffffffffffffffffffffffff1916141515156200034c57600080fd5b6001806000837bffffffffffffffffffffffffffffffffffffffffffffffffffffffff19167bffffffffffffffffffffffffffffffffffffffffffffffffffffffff1916815260200190815260200160002060006101000a81548160ff02191690831515021790555050565b828054600181600116156101000203166002900490600052602060002090601f016020900481019282601f10620003fb57805160ff19168380011785556200042c565b828001600101855582156200042c579182015b828111156200042b5782518255916020019190600101906200040e565b5b5090506200043b91906200043f565b5090565b6200046491905b808211156200046057600081600090555060010162000446565b5090565b90565b613ab880620004776000396000f3fe608060405234801561001057600080fd5b506004361061018e5760003560e01c806370a08231116100de578063c87b56dd11610097578063d95b322111610071578063d95b322114610ef3578063e985e9c514610f23578063f2fde38b14610f9f578063fec6cfb914610fe35761018e565b8063c87b56dd14610ccc578063d3fc986414610d73578063d547cfb714610e705761018e565b806370a08231146108dd578063893d20e81461093557806395d89b411461097f578063960a17f614610a02578063a22cb46514610b77578063b88d4fde14610bc75761018e565b806323b872dd1161014b57806338bbfa501161012557806338bbfa501461066357806342842e0e146107bf5780634f6ccce71461082d5780636352211e1461086f5761018e565b806323b872dd146104ce57806327dc297e1461053c5780632f745c59146106015761018e565b806301ffc9a71461019357806306fdde03146101f8578063081812fc1461027b578063095ea7b3146102e957806313d3fbcc1461033757806318160ddd146104b0575b600080fd5b6101de600480360360208110156101a957600080fd5b8101908080357bffffffffffffffffffffffffffffffffffffffffffffffffffffffff19169060200190929190505050611186565b604051808215151515815260200191505060405180910390f35b6102006111ee565b6040518080602001828103825283818151815260200191508051906020019080838360005b83811015610240578082015181840152602081019050610225565b50505050905090810190601f16801561026d5780820380516001836020036101000a031916815260200191505b509250505060405180910390f35b6102a76004803603602081101561029157600080fd5b8101908080359060200190929190505050611290565b604051808273ffffffffffffffffffffffffffffffffffffffff1673ffffffffffffffffffffffffffffffffffffffff16815260200191505060405180910390f35b610335600480360360408110156102ff57600080fd5b81019080803573ffffffffffffffffffffffffffffffffffffffff169060200190929190803590602001909291905050506112cd565b005b610496600480360361014081101561034e57600080fd5b8101908080604001906002806020026040519081016040528092919082600260200280828437600081840152601f19601f82011690508083019250505050505091929192908060800190600280602002604051908101604052809291906000905b82821015610403578382604002016002806020026040519081016040528092919082600260200280828437600081840152601f19601f820116905080830192505050505050815260200190600101906103af565b50505050919291929080604001906002806020026040519081016040528092919082600260200280828437600081840152601f19601f820116905080830192505050505050919291929080604001906002806020026040519081016040528092919082600260200280828437600081840152601f19601f8201169050808301925050505050509192919290505050611563565b604051808215151515815260200191505060405180910390f35b6104b86115a0565b6040518082815260200191505060405180910390f35b61053a600480360360608110156104e457600080fd5b81019080803573ffffffffffffffffffffffffffffffffffffffff169060200190929190803573ffffffffffffffffffffffffffffffffffffffff169060200190929190803590602001909291905050506115ad565b005b6105ff6004803603604081101561055257600080fd5b81019080803590602001909291908035906020019064010000000081111561057957600080fd5b82018360208201111561058b57600080fd5b803590602001918460018302840111640100000000831117156105ad57600080fd5b91908080601f016020809104026020016040519081016040528093929190818152602001838380828437600081840152601f19601f8201169050808301925050505050505091929192905050506115d2565b005b61064d6004803603604081101561061757600080fd5b81019080803573ffffffffffffffffffffffffffffffffffffffff16906020019092919080359060200190929190505050611615565b6040518082815260200191505060405180910390f35b6107bd6004803603606081101561067957600080fd5b8101908080359060200190929190803590602001906401000000008111156106a057600080fd5b8201836020820111156106b257600080fd5b803590602001918460018302840111640100000000831117156106d457600080fd5b91908080601f016020809104026020016040519081016040528093929190818152602001838380828437600081840152601f19601f8201169050808301925050505050505091929192908035906020019064010000000081111561073757600080fd5b82018360208201111561074957600080fd5b8035906020019184600183028401116401000000008311171561076b57600080fd5b91908080601f016020809104026020016040519081016040528093929190818152602001838380828437600081840152601f19601f82011690508083019250505050505050919291929050505061168c565b005b61082b600480360360608110156107d557600080fd5b81019080803573ffffffffffffffffffffffffffffffffffffffff169060200190929190803573ffffffffffffffffffffffffffffffffffffffff16906020019092919080359060200190929190505050611691565b005b6108596004803603602081101561084357600080fd5b81019080803590602001909291905050506116b1565b6040518082815260200191505060405180910390f35b61089b6004803603602081101561088557600080fd5b81019080803590602001909291905050506116e9565b604051808273ffffffffffffffffffffffffffffffffffffffff1673ffffffffffffffffffffffffffffffffffffffff16815260200191505060405180910390f35b61091f600480360360208110156108f357600080fd5b81019080803573ffffffffffffffffffffffffffffffffffffffff169060200190929190505050611726565b6040518082815260200191505060405180910390f35b61093d611776565b604051808273ffffffffffffffffffffffffffffffffffffffff1673ffffffffffffffffffffffffffffffffffffffff16815260200191505060405180910390f35b61098761179f565b6040518080602001828103825283818151815260200191508051906020019080838360005b838110156109c75780820151818401526020810190506109ac565b50505050905090810190601f1680156109f45780820380516001836020036101000a031916815260200191505b509250505060405180910390f35b610b616004803603610140811015610a1957600080fd5b8101908080604001906002806020026040519081016040528092919082600260200280828437600081840152601f19601f82011690508083019250505050505091929192908060800190600280602002604051908101604052809291906000905b82821015610ace578382604002016002806020026040519081016040528092919082600260200280828437600081840152601f19601f82011690508083019250505050505081526020019060010190610a7a565b50505050919291929080604001906002806020026040519081016040528092919082600260200280828437600081840152601f19601f820116905080830192505050505050919291929080604001906002806020026040519081016040528092919082600260200280828437600081840152601f19601f8201169050808301925050505050509192919290505050611841565b6040518082815260200191505060405180910390f35b610bc560048036036040811015610b8d57600080fd5b81019080803573ffffffffffffffffffffffffffffffffffffffff16906020019092919080351515906020019092919050505061194f565b005b610cca60048036036080811015610bdd57600080fd5b81019080803573ffffffffffffffffffffffffffffffffffffffff169060200190929190803573ffffffffffffffffffffffffffffffffffffffff1690602001909291908035906020019092919080359060200190640100000000811115610c4457600080fd5b820183602082011115610c5657600080fd5b80359060200191846001830284011164010000000083111715610c7857600080fd5b91908080601f016020809104026020016040519081016040528093929190818152602001838380828437600081840152601f19601f820116905080830192505050505050509192919290505050611a8b565b005b610cf860048036036020811015610ce257600080fd5b8101908080359060200190929190505050611ab3565b6040518080602001828103825283818151815260200191508051906020019080838360005b83811015610d38578082015181840152602081019050610d1d565b50505050905090810190601f168015610d655780820380516001836020036101000a031916815260200191505b509250505060405180910390f35b610e5660048036036060811015610d8957600080fd5b81019080803573ffffffffffffffffffffffffffffffffffffffff1690602001909291908035906020019092919080359060200190640100000000811115610dd057600080fd5b820183602082011115610de257600080fd5b80359060200191846001830284011164010000000083111715610e0457600080fd5b91908080601f016020809104026020016040519081016040528093929190818152602001838380828437600081840152601f19601f820116905080830192505050505050509192919290505050611b7c565b604051808215151515815260200191505060405180910390f35b610e78611c60565b6040518080602001828103825283818151815260200191508051906020019080838360005b83811015610eb8578082015181840152602081019050610e9d565b50505050905090810190601f168015610ee55780820380516001836020036101000a031916815260200191505b509250505060405180910390f35b610f2160048036036020811015610f0957600080fd5b81019080803515159060200190929190505050611d02565b005b610f8560048036036040811015610f3957600080fd5b81019080803573ffffffffffffffffffffffffffffffffffffffff169060200190929190803573ffffffffffffffffffffffffffffffffffffffff169060200190929190505050611ee1565b604051808215151515815260200191505060405180910390f35b610fe160048036036020811015610fb557600080fd5b81019080803573ffffffffffffffffffffffffffffffffffffffff169060200190929190505050611f75565b005b61116c6004803603610180811015610ffa57600080fd5b81019080803573ffffffffffffffffffffffffffffffffffffffff1690602001909291908035906020019092919080604001906002806020026040519081016040528092919082600260200280828437600081840152601f19601f82011690508083019250505050505091929192908060800190600280602002604051908101604052809291906000905b828210156110d9578382604002016002806020026040519081016040528092919082600260200280828437600081840152601f19601f82011690508083019250505050505081526020019060010190611085565b50505050919291929080604001906002806020026040519081016040528092919082600260200280828437600081840152601f19601f820116905080830192505050505050919291929080604001906002806020026040519081016040528092919082600260200280828437600081840152601f19601f8201169050808301925050505050509192919290505050612134565b604051808215151515815260200191505060405180910390f35b600060016000837bffffffffffffffffffffffffffffffffffffffffffffffffffffffff19167bffffffffffffffffffffffffffffffffffffffffffffffffffffffff1916815260200190815260200160002060009054906101000a900460ff169050919050565b6060600f8054600181600116156101000203166002900480601f0160208091040260200160405190810160405280929190818152602001828054600181600116156101000203166002900480156112865780601f1061125b57610100808354040283529160200191611286565b820191906000526020600020905b81548152906001019060200180831161126957829003601f168201915b5050505050905090565b60006003600083815260200190815260200160002060009054906101000a900473ffffffffffffffffffffffffffffffffffffffff169050919050565b6112d5611776565b73ffffffffffffffffffffffffffffffffffffffff168273ffffffffffffffffffffffffffffffffffffffff161415151561135b576040517f08c379a0000000000000000000000000000000000000000000000000000000008152600401808060200182810382526035815260200180613a256035913960400191505060405180910390fd5b60006002600083815260200190815260200160002060009054906101000a900473ffffffffffffffffffffffffffffffffffffffff16905061139b611776565b73ffffffffffffffffffffffffffffffffffffffff163373ffffffffffffffffffffffffffffffffffffffff16148061145a5750600560008273ffffffffffffffffffffffffffffffffffffffff1673ffffffffffffffffffffffffffffffffffffffff16815260200190815260200160002060003373ffffffffffffffffffffffffffffffffffffffff1673ffffffffffffffffffffffffffffffffffffffff16815260200190815260200160002060009054906101000a900460ff165b15156114b1576040517f08c379a0000000000000000000000000000000000000000000000000000000008152600401808060200182810382526033815260200180613a5a6033913960400191505060405180910390fd5b826003600084815260200190815260200160002060006101000a81548173ffffffffffffffffffffffffffffffffffffffff021916908373ffffffffffffffffffffffffffffffffffffffff160217905550818373ffffffffffffffffffffffffffffffffffffffff168273ffffffffffffffffffffffffffffffffffffffff167f8c5be1e5ebec7d5bd14f71427d1e84f3dd0314c0f7b2291e5b200ac8c7c3b92560405160405180910390a4505050565b60008061157286868686611841565b90506015600082815260200190815260200160002060009054906101000a900460ff16915050949350505050565b6000600880549050905090565b6115b733826123ee565b15156115c257600080fd5b6115cd838383612483565b505050565b611611828260006040519080825280601f01601f19166020018201604052801561160b5781602001600182028038833980820191505090505b5061168c565b5050565b600061162083611726565b8210151561162d57600080fd5b600660008473ffffffffffffffffffffffffffffffffffffffff1673ffffffffffffffffffffffffffffffffffffffff1681526020019081526020016000208281548110151561167957fe5b9060005260206000200154905092915050565b505050565b6116ac83838360405180602001604052806000815250611a8b565b505050565b60006116bb6115a0565b821015156116c857600080fd5b6008828154811015156116d757fe5b90600052602060002001549050919050565b60006002600083815260200190815260200160002060009054906101000a900473ffffffffffffffffffffffffffffffffffffffff169050919050565b600061176f600460008473ffffffffffffffffffffffffffffffffffffffff1673ffffffffffffffffffffffffffffffffffffffff1681526020019081526020016000206124a7565b9050919050565b60008060009054906101000a900473ffffffffffffffffffffffffffffffffffffffff16905090565b606060108054600181600116156101000203166002900480601f0160208091040260200160405190810160405280929190818152602001828054600181600116156101000203166002900480156118375780601f1061180c57610100808354040283529160200191611837565b820191906000526020600020905b81548152906001019060200180831161181a57829003601f168201915b5050505050905090565b6000848484846040516020018085600260200280838360005b8381101561187557808201518184015260208101905061185a565b505050509050018460026000925b818410156118c95782846020020151600260200280838360005b838110156118b857808201518184015260208101905061189d565b505050509050019260010192611883565b9250505083600260200280838360005b838110156118f45780820151818401526020810190506118d9565b5050505090500182600260200280838360005b83811015611922578082015181840152602081019050611907565b50505050905001945050505050604051602081830303815290604052805190602001209050949350505050565b3373ffffffffffffffffffffffffffffffffffffffff168273ffffffffffffffffffffffffffffffffffffffff161415151561198a57600080fd5b80600560003373ffffffffffffffffffffffffffffffffffffffff1673ffffffffffffffffffffffffffffffffffffffff16815260200190815260200160002060008473ffffffffffffffffffffffffffffffffffffffff1673ffffffffffffffffffffffffffffffffffffffff16815260200190815260200160002060006101000a81548160ff0219169083151502179055508173ffffffffffffffffffffffffffffffffffffffff163373ffffffffffffffffffffffffffffffffffffffff167f17307eab39ab6107e8899845ad3d59bd9653f200f220920489ca2b5937696c3183604051808215151515815260200191505060405180910390a35050565b611a968484846115ad565b611aa2848484846124b5565b1515611aad57600080fd5b50505050565b6060611abe826126a0565b1515611ac957600080fd5b601260008381526020019081526020016000208054600181600116156101000203166002900480601f016020809104026020016040519081016040528092919081815260200182805460018160011615610100020316600290048015611b705780601f10611b4557610100808354040283529160200191611b70565b820191906000526020600020905b815481529060010190602001808311611b5357829003601f168201915b50505050509050919050565b60008060009054906101000a900473ffffffffffffffffffffffffffffffffffffffff1673ffffffffffffffffffffffffffffffffffffffff163373ffffffffffffffffffffffffffffffffffffffff16141515611c42576040517f08c379a000000000000000000000000000000000000000000000000000000000815260040180806020018281038252601c8152602001807f43616c6c6572206973206e6f7420636f6e7472616374206f776e65720000000081525060200191505060405180910390fd5b611c4c8484612712565b611c5583612733565b600190509392505050565b606060118054600181600116156101000203166002900480601f016020809104026020016040519081016040528092919081815260200182805460018160011615610100020316600290048015611cf85780601f10611ccd57610100808354040283529160200191611cf8565b820191906000526020600020905b815481529060010190602001808311611cdb57829003601f168201915b5050505050905090565b6000809054906101000a900473ffffffffffffffffffffffffffffffffffffffff1673ffffffffffffffffffffffffffffffffffffffff163373ffffffffffffffffffffffffffffffffffffffff16141515611dc6576040517f08c379a000000000000000000000000000000000000000000000000000000000815260040180806020018281038252601c8152602001807f43616c6c6572206973206e6f7420636f6e7472616374206f776e65720000000081525060200191505060405180910390fd5b801515600060149054906101000a900460ff161515141515611ede5780600060146101000a81548160ff021916908315150217905550600060149054906101000a900460ff1615611e79577f62e78cea01bee320cd4e420270b5ea74000d11b0c9f74754ebdbfc544b05a25833604051808273ffffffffffffffffffffffffffffffffffffffff1673ffffffffffffffffffffffffffffffffffffffff16815260200191505060405180910390a1611edd565b7f5db9ee0a495bf2e6ff9c91a7834c1ba4fdd244a5e8aa4e537bd38aeae4b073aa33604051808273ffffffffffffffffffffffffffffffffffffffff1673ffffffffffffffffffffffffffffffffffffffff16815260200191505060405180910390a15b5b50565b6000600560008473ffffffffffffffffffffffffffffffffffffffff1673ffffffffffffffffffffffffffffffffffffffff16815260200190815260200160002060008373ffffffffffffffffffffffffffffffffffffffff1673ffffffffffffffffffffffffffffffffffffffff16815260200190815260200160002060009054906101000a900460ff16905092915050565b6000809054906101000a900473ffffffffffffffffffffffffffffffffffffffff1673ffffffffffffffffffffffffffffffffffffffff163373ffffffffffffffffffffffffffffffffffffffff16141515612039576040517f08c379a000000000000000000000000000000000000000000000000000000000815260040180806020018281038252601c8152602001807f43616c6c6572206973206e6f7420636f6e7472616374206f776e65720000000081525060200191505060405180910390fd5b806000806101000a81548173ffffffffffffffffffffffffffffffffffffffff021916908373ffffffffffffffffffffffffffffffffffffffff1602179055507f7699c77f2404f9b6bbd003861bb4af8ae70b205e19e73d7ec7fe4590db59a6b7336000809054906101000a900473ffffffffffffffffffffffffffffffffffffffff16604051808373ffffffffffffffffffffffffffffffffffffffff1673ffffffffffffffffffffffffffffffffffffffff1681526020018273ffffffffffffffffffffffffffffffffffffffff1673ffffffffffffffffffffffffffffffffffffffff1681526020019250505060405180910390a150565b600084848484600061214885858585611841565b90506015600082815260200190815260200160002060009054906101000a900460ff161515156121e0576040517f08c379a00000000000000000000000000000000000000000000000000000000081526004018080602001828103825260178152602001807f536f6c7574696f6e20616c72656164792065786973747300000000000000000081525060200191505060405180910390fd5b60011515601360009054906101000a900473ffffffffffffffffffffffffffffffffffffffff1673ffffffffffffffffffffffffffffffffffffffff1663621e9ec08c8c8c8c6040518563ffffffff1660e01b81526004018085600260200280838360005b83811015612260578082015181840152602081019050612245565b505050509050018460026000925b818410156122b45782846020020151600260200280838360005b838110156122a3578082015181840152602081019050612288565b50505050905001926001019261226e565b9250505083600260200280838360005b838110156122df5780820151818401526020810190506122c4565b5050505090500182600260200280838360005b8381101561230d5780820151818401526020810190506122f2565b5050505090500194505050505060206040518083038186803b15801561233257600080fd5b505afa158015612346573d6000803e3d6000fd5b505050506040513d602081101561235c57600080fd5b8101908080519060200190929190505050151514156123da5760006123838b8b8b8b611841565b90506123928b8b8b8b85612829565b6123d28d8d6040518060400160405280600381526020017f5552490000000000000000000000000000000000000000000000000000000000815250611b7c565b9650506123df565b600095505b50505050509695505050505050565b6000806123fa836116e9565b90508073ffffffffffffffffffffffffffffffffffffffff168473ffffffffffffffffffffffffffffffffffffffff16148061246957508373ffffffffffffffffffffffffffffffffffffffff1661245184611290565b73ffffffffffffffffffffffffffffffffffffffff16145b8061247a57506124798185611ee1565b5b91505092915050565b61248e83838361291a565b6124988382612c28565b6124a28282612dcc565b505050565b600081600001549050919050565b60006124d68473ffffffffffffffffffffffffffffffffffffffff16612e93565b15156124e55760019050612698565b60008473ffffffffffffffffffffffffffffffffffffffff1663150b7a02338887876040518563ffffffff1660e01b8152600401808573ffffffffffffffffffffffffffffffffffffffff1673ffffffffffffffffffffffffffffffffffffffff1681526020018473ffffffffffffffffffffffffffffffffffffffff1673ffffffffffffffffffffffffffffffffffffffff16815260200183815260200180602001828103825283818151815260200191508051906020019080838360005b838110156125c05780820151818401526020810190506125a5565b50505050905090810190601f1680156125ed5780820380516001836020036101000a031916815260200191505b5095505050505050602060405180830381600087803b15801561260f57600080fd5b505af1158015612623573d6000803e3d6000fd5b505050506040513d602081101561263957600080fd5b8101908080519060200190929190505050905063150b7a0260e01b7bffffffffffffffffffffffffffffffffffffffffffffffffffffffff1916817bffffffffffffffffffffffffffffffffffffffffffffffffffffffff1916149150505b949350505050565b6000806002600084815260200190815260200160002060009054906101000a900473ffffffffffffffffffffffffffffffffffffffff169050600073ffffffffffffffffffffffffffffffffffffffff168173ffffffffffffffffffffffffffffffffffffffff161415915050919050565b61271c8282612ede565b6127268282612dcc565b61272f816130da565b5050565b61273c816126a0565b151561274757600080fd5b606061275282613126565b905060606127fa60118054600181600116156101000203166002900480601f0160208091040260200160405190810160405280929190818152602001828054600181600116156101000203166002900480156127ef5780601f106127c4576101008083540402835291602001916127ef565b820191906000526020600020905b8154815290600101906020018083116127d257829003601f168201915b505050505083613260565b9050806012600085815260200190815260200160002090805190602001906128239291906137f9565b50505050565b612831613879565b8581600001819052508481602001819052508381604001819052508281606001819052506014819080600181540180825580915050906001820390600052602060002090600a02016000909192909190915060008201518160000190600261289a9291906138ba565b506020820151816002019060026128b29291906138fa565b506040820151816006019060026128ca9291906138ba565b506060820151816008019060026128e29291906138ba565b5050505060016015600084815260200190815260200160002060006101000a81548160ff021916908315150217905550505050505050565b6002600082815260200190815260200160002060009054906101000a900473ffffffffffffffffffffffffffffffffffffffff1673ffffffffffffffffffffffffffffffffffffffff168373ffffffffffffffffffffffffffffffffffffffff161415156129f0576040517f08c379a000000000000000000000000000000000000000000000000000000000815260040180806020018281038252601c8152602001807f46726f6d20616464726573732073686f756c64206265206f776e65720000000081525060200191505060405180910390fd5b600073ffffffffffffffffffffffffffffffffffffffff168273ffffffffffffffffffffffffffffffffffffffff1614151515612a95576040517f08c379a000000000000000000000000000000000000000000000000000000000815260040180806020018281038252601a8152602001807f56616c69642061646472657373206e6f742070726f766964656400000000000081525060200191505060405180910390fd5b60006003600083815260200190815260200160002060006101000a81548173ffffffffffffffffffffffffffffffffffffffff021916908373ffffffffffffffffffffffffffffffffffffffff160217905550612b2f600460008573ffffffffffffffffffffffffffffffffffffffff1673ffffffffffffffffffffffffffffffffffffffff1681526020019081526020016000206132a4565b816002600083815260200190815260200160002060006101000a81548173ffffffffffffffffffffffffffffffffffffffff021916908373ffffffffffffffffffffffffffffffffffffffff160217905550612bc8600460008473ffffffffffffffffffffffffffffffffffffffff1673ffffffffffffffffffffffffffffffffffffffff1681526020019081526020016000206132c7565b808273ffffffffffffffffffffffffffffffffffffffff168473ffffffffffffffffffffffffffffffffffffffff167fddf252ad1be2c89b69c2b068fc378daa952ba7f163c4a11628f55a4df523b3ef60405160405180910390a4505050565b6000612c806001600660008673ffffffffffffffffffffffffffffffffffffffff1673ffffffffffffffffffffffffffffffffffffffff168152602001908152602001600020805490506132dd90919063ffffffff16565b90506000600760008481526020019081526020016000205490508181141515612d73576000600660008673ffffffffffffffffffffffffffffffffffffffff1673ffffffffffffffffffffffffffffffffffffffff16815260200190815260200160002083815481101515612cf157fe5b9060005260206000200154905080600660008773ffffffffffffffffffffffffffffffffffffffff1673ffffffffffffffffffffffffffffffffffffffff16815260200190815260200160002083815481101515612d4b57fe5b9060005260206000200181905550816007600083815260200190815260200160002081905550505b600660008573ffffffffffffffffffffffffffffffffffffffff1673ffffffffffffffffffffffffffffffffffffffff168152602001908152602001600020805480919060019003612dc5919061394a565b5050505050565b600660008373ffffffffffffffffffffffffffffffffffffffff1673ffffffffffffffffffffffffffffffffffffffff168152602001908152602001600020805490506007600083815260200190815260200160002081905550600660008373ffffffffffffffffffffffffffffffffffffffff1673ffffffffffffffffffffffffffffffffffffffff1681526020019081526020016000208190806001815401808255809150509060018203906000526020600020016000909192909190915055505050565b60008060007fc5d2460186f7233c927e7db2dcc703c0e500b653ca82273b7bfad8045d85a47060001b9050833f9150808214158015612ed557506000801b8214155b92505050919050565b612ee7816126a0565b151515612f5c576040517f08c379a00000000000000000000000000000000000000000000000000000000081526004018080602001828103825260148152602001807f746f6b656e20616c72656164792065786973747300000000000000000000000081525060200191505060405180910390fd5b816002600083815260200190815260200160002060006101000a81548173ffffffffffffffffffffffffffffffffffffffff021916908373ffffffffffffffffffffffffffffffffffffffff160217905550612ff5600460008473ffffffffffffffffffffffffffffffffffffffff1673ffffffffffffffffffffffffffffffffffffffff1681526020019081526020016000206132c7565b61307a6040518060400160405280601081526020017f746f6b656e20636f756e74203d20256400000000000000000000000000000000815250613075600460008673ffffffffffffffffffffffffffffffffffffffff1673ffffffffffffffffffffffffffffffffffffffff1681526020019081526020016000206124a7565b613327565b808273ffffffffffffffffffffffffffffffffffffffff16600073ffffffffffffffffffffffffffffffffffffffff167fddf252ad1be2c89b69c2b068fc378daa952ba7f163c4a11628f55a4df523b3ef60405160405180910390a45050565b6008805490506009600083815260200190815260200160002081905550600881908060018154018082558091505090600182039060005260206000200160009091929091909150555050565b6060600082141561316e576040518060400160405280600181526020017f3000000000000000000000000000000000000000000000000000000000000000815250905061325b565b600082905060005b60008214151561319c578080600101915050600a8281151561319457fe5b049150613176565b6060816040519080825280601f01601f1916602001820160405280156131d15781602001600182028038833980820191505090505b50905060006001830390505b60008614151561325357600a868115156131f357fe5b0660300160f81b82828060019003935081518110151561320f57fe5b9060200101907effffffffffffffffffffffffffffffffffffffffffffffffffffffffffffff1916908160001a905350600a8681151561324b57fe5b0495506131dd565b819450505050505b919050565b606061329c838360405180602001604052806000815250604051806020016040528060008152506040518060200160405280600081525061342e565b905092915050565b6132bc600182600001546132dd90919063ffffffff16565b816000018190555050565b6001816000016000828254019250508190555050565b600061331f83836040518060400160405280601e81526020017f536166654d6174683a207375627472616374696f6e206f766572666c6f77000081525061370e565b905092915050565b61342a82826040516024018080602001838152602001828103825284818151815260200191508051906020019080838360005b8381101561337557808201518184015260208101905061335a565b50505050905090810190601f1680156133a25780820380516001836020036101000a031916815260200191505b5093505050506040516020818303038152906040527f9710a9d0000000000000000000000000000000000000000000000000000000007bffffffffffffffffffffffffffffffffffffffffffffffffffffffff19166020820180517bffffffffffffffffffffffffffffffffffffffffffffffffffffffff83818316178352505050506137d0565b5050565b6060808690506060869050606086905060608690506060869050606081518351855187518951010101016040519080825280601f01601f19166020018201604052801561348a5781602001600182028038833980820191505090505b509050606081905060008090506000809050600090505b88518110156135155788818151811015156134b857fe5b90602001015160f81c60f81b83838060010194508151811015156134d857fe5b9060200101907effffffffffffffffffffffffffffffffffffffffffffffffffffffffffffff1916908160001a90535080806001019150506134a1565b600090505b875181101561358e57878181518110151561353157fe5b90602001015160f81c60f81b838380600101945081518110151561355157fe5b9060200101907effffffffffffffffffffffffffffffffffffffffffffffffffffffffffffff1916908160001a905350808060010191505061351a565b600090505b86518110156136075786818151811015156135aa57fe5b90602001015160f81c60f81b83838060010194508151811015156135ca57fe5b9060200101907effffffffffffffffffffffffffffffffffffffffffffffffffffffffffffff1916908160001a9053508080600101915050613593565b600090505b855181101561368057858181518110151561362357fe5b90602001015160f81c60f81b838380600101945081518110151561364357fe5b9060200101907effffffffffffffffffffffffffffffffffffffffffffffffffffffffffffff1916908160001a905350808060010191505061360c565b600090505b84518110156136f957848181518110151561369c57fe5b90602001015160f81c60f81b83838060010194508151811015156136bc57fe5b9060200101907effffffffffffffffffffffffffffffffffffffffffffffffffffffffffffff1916908160001a9053508080600101915050613685565b82995050505050505050505095945050505050565b600083831115829015156137bd576040517f08c379a00000000000000000000000000000000000000000000000000000000081526004018080602001828103825283818151815260200191508051906020019080838360005b83811015613782578082015181840152602081019050613767565b50505050905090810190601f1680156137af5780820380516001836020036101000a031916815260200191505b509250505060405180910390fd5b5060008385039050809150509392505050565b60008151905060006a636f6e736f6c652e6c6f679050602083016000808483855afa5050505050565b828054600181600116156101000203166002900490600052602060002090601f016020900481019282601f1061383a57805160ff1916838001178555613868565b82800160010185558215613868579182015b8281111561386757825182559160200191906001019061384c565b5b5090506138759190613976565b5090565b60405180610140016040528061388d61399b565b815260200161389a6139bd565b81526020016138a761399b565b81526020016138b461399b565b81525090565b82600281019282156138e9579160200282015b828111156138e85782518255916020019190600101906138cd565b5b5090506138f69190613976565b5090565b82600280028101928215613939579160200282015b82811115613938578251829060026139289291906138ba565b509160200191906002019061390f565b5b50905061394691906139ea565b5090565b815481835581811115613971578183600052602060002091820191016139709190613976565b5b505050565b61399891905b8082111561399457600081600090555060010161397c565b5090565b90565b6040518060400160405280600290602082028038833980820191505090505090565b60405180608001604052806002905b6139d461399b565b8152602001906001900390816139cc5790505090565b613a1391905b80821115613a0f5760008181613a069190613a16565b506002016139f0565b5090565b90565b50600081556001016000905556fe50617373656420616464726573732073686f756c64206e6f7420626520746865206f776e6572206f662074686520746f656b6e49646d6573736167652073656e6465722073686f756c64206265206f776e6572206f7220617070726f766564206f70657261746f72a165627a7a723058207fb6029153bf3086206fa7dbe5d88fb70b59dcda0e3eaf5c0b87129d459aa2ef002968747470733a2f2f73332d75732d776573742d322e616d617a6f6e6177732e636f6d2f756461636974792d626c6f636b636861696e2f63617073746f6e652f",
  "linkReferences": {},
  "deployedLinkReferences": {}
}