{
  "_format": "hh-sol-artifact-1",
  "contractName": "SolnSquareVerifier",
  "sourceName": "contracts/SolnSquareVerifier.sol",
  "abi": [
    {
      "constant": false,
      "inputs": [
        {
          "name": "tokenId",
          "type": "uint256"
        },
        {
          "name": "a",
          "type": "uint256[2]"
        },
        {
          "name": "b",
          "type": "uint256[2][2]"
        },
        {
          "name": "c",
          "type": "uint256[2]"
        },
        {
          "name": "inputs",
          "type": "uint256[2]"
        }
      ],
      "name": "mintToken",
      "outputs": [],
      "payable": false,
      "stateMutability": "nonpayable",
      "type": "function"
    },
    {
      "constant": true,
      "inputs": [
        {
          "name": "interfaceId",
          "type": "bytes4"
        }
      ],
      "name": "supportsInterface",
      "outputs": [
        {
          "name": "",
          "type": "bool"
        }
      ],
      "payable": false,
      "stateMutability": "view",
      "type": "function"
    },
    {
      "constant": true,
      "inputs": [],
      "name": "name",
      "outputs": [
        {
          "name": "",
          "type": "string"
        }
      ],
      "payable": false,
      "stateMutability": "view",
      "type": "function"
    },
    {
      "constant": true,
      "inputs": [
        {
          "name": "tokenId",
          "type": "uint256"
        }
      ],
      "name": "getApproved",
      "outputs": [
        {
          "name": "",
          "type": "address"
        }
      ],
      "payable": false,
      "stateMutability": "view",
      "type": "function"
    },
    {
      "constant": false,
      "inputs": [
        {
          "name": "to",
          "type": "address"
        },
        {
          "name": "tokenId",
          "type": "uint256"
        }
      ],
      "name": "approve",
      "outputs": [],
      "payable": false,
      "stateMutability": "nonpayable",
      "type": "function"
    },
    {
      "constant": true,
      "inputs": [
        {
          "name": "a",
          "type": "uint256[2]"
        },
        {
          "name": "b",
          "type": "uint256[2][2]"
        },
        {
          "name": "c",
          "type": "uint256[2]"
        },
        {
          "name": "inputs",
          "type": "uint256[2]"
        }
      ],
      "name": "checkSolution",
      "outputs": [
        {
          "name": "",
          "type": "bool"
        }
      ],
      "payable": false,
      "stateMutability": "view",
      "type": "function"
    },
    {
      "constant": true,
      "inputs": [],
      "name": "totalSupply",
      "outputs": [
        {
          "name": "",
          "type": "uint256"
        }
      ],
      "payable": false,
      "stateMutability": "view",
      "type": "function"
    },
    {
      "constant": false,
      "inputs": [
        {
          "name": "from",
          "type": "address"
        },
        {
          "name": "to",
          "type": "address"
        },
        {
          "name": "tokenId",
          "type": "uint256"
        }
      ],
      "name": "transferFrom",
      "outputs": [],
      "payable": false,
      "stateMutability": "nonpayable",
      "type": "function"
    },
    {
      "constant": false,
      "inputs": [
        {
          "name": "_myid",
          "type": "bytes32"
        },
        {
          "name": "_result",
          "type": "string"
        }
      ],
      "name": "__callback",
      "outputs": [],
      "payable": false,
      "stateMutability": "nonpayable",
      "type": "function"
    },
    {
      "constant": true,
      "inputs": [
        {
          "name": "owner",
          "type": "address"
        },
        {
          "name": "index",
          "type": "uint256"
        }
      ],
      "name": "tokenOfOwnerByIndex",
      "outputs": [
        {
          "name": "",
          "type": "uint256"
        }
      ],
      "payable": false,
      "stateMutability": "view",
      "type": "function"
    },
    {
      "constant": false,
      "inputs": [
        {
          "name": "_myid",
          "type": "bytes32"
        },
        {
          "name": "_result",
          "type": "string"
        },
        {
          "name": "_proof",
          "type": "bytes"
        }
      ],
      "name": "__callback",
      "outputs": [],
      "payable": false,
      "stateMutability": "nonpayable",
      "type": "function"
    },
    {
      "constant": false,
      "inputs": [
        {
          "name": "to",
          "type": "address"
        },
        {
          "name": "tokenId",
          "type": "uint256"
        }
      ],
      "name": "mint",
      "outputs": [
        {
          "name": "",
          "type": "bool"
        }
      ],
      "payable": false,
      "stateMutability": "nonpayable",
      "type": "function"
    },
    {
      "constant": false,
      "inputs": [
        {
          "name": "from",
          "type": "address"
        },
        {
          "name": "to",
          "type": "address"
        },
        {
          "name": "tokenId",
          "type": "uint256"
        }
      ],
      "name": "safeTransferFrom",
      "outputs": [],
      "payable": false,
      "stateMutability": "nonpayable",
      "type": "function"
    },
    {
      "constant": true,
      "inputs": [
        {
          "name": "index",
          "type": "uint256"
        }
      ],
      "name": "tokenByIndex",
      "outputs": [
        {
          "name": "",
          "type": "uint256"
        }
      ],
      "payable": false,
      "stateMutability": "view",
      "type": "function"
    },
    {
      "constant": true,
      "inputs": [
        {
          "name": "tokenId",
          "type": "uint256"
        }
      ],
      "name": "ownerOf",
      "outputs": [
        {
          "name": "",
          "type": "address"
        }
      ],
      "payable": false,
      "stateMutability": "view",
      "type": "function"
    },
    {
      "constant": true,
      "inputs": [
        {
          "name": "owner",
          "type": "address"
        }
      ],
      "name": "balanceOf",
      "outputs": [
        {
          "name": "",
          "type": "uint256"
        }
      ],
      "payable": false,
      "stateMutability": "view",
      "type": "function"
    },
    {
      "constant": true,
      "inputs": [],
      "name": "getOwner",
      "outputs": [
        {
          "name": "",
          "type": "address"
        }
      ],
      "payable": false,
      "stateMutability": "view",
      "type": "function"
    },
    {
      "constant": true,
      "inputs": [],
      "name": "symbol",
      "outputs": [
        {
          "name": "",
          "type": "string"
        }
      ],
      "payable": false,
      "stateMutability": "view",
      "type": "function"
    },
    {
      "constant": true,
      "inputs": [
        {
          "name": "a",
          "type": "uint256[2]"
        },
        {
          "name": "b",
          "type": "uint256[2][2]"
        },
        {
          "name": "c",
          "type": "uint256[2]"
        },
        {
          "name": "inputs",
          "type": "uint256[2]"
        }
      ],
      "name": "getSolutionKey",
      "outputs": [
        {
          "name": "",
          "type": "bytes32"
        }
      ],
      "payable": false,
      "stateMutability": "pure",
      "type": "function"
    },
    {
      "constant": false,
      "inputs": [
        {
          "name": "to",
          "type": "address"
        },
        {
          "name": "approved",
          "type": "bool"
        }
      ],
      "name": "setApprovalForAll",
      "outputs": [],
      "payable": false,
      "stateMutability": "nonpayable",
      "type": "function"
    },
    {
      "constant": false,
      "inputs": [
        {
          "name": "from",
          "type": "address"
        },
        {
          "name": "to",
          "type": "address"
        },
        {
          "name": "tokenId",
          "type": "uint256"
        },
        {
          "name": "_data",
          "type": "bytes"
        }
      ],
      "name": "safeTransferFrom",
      "outputs": [],
      "payable": false,
      "stateMutability": "nonpayable",
      "type": "function"
    },
    {
      "constant": true,
      "inputs": [
        {
          "name": "tokenId",
          "type": "uint256"
        }
      ],
      "name": "tokenURI",
      "outputs": [
        {
          "name": "",
          "type": "string"
        }
      ],
      "payable": false,
      "stateMutability": "view",
      "type": "function"
    },
    {
      "constant": true,
      "inputs": [],
      "name": "baseTokenURI",
      "outputs": [
        {
          "name": "",
          "type": "string"
        }
      ],
      "payable": false,
      "stateMutability": "view",
      "type": "function"
    },
    {
      "constant": false,
      "inputs": [
        {
          "name": "pauseState",
          "type": "bool"
        }
      ],
      "name": "changePauseState",
      "outputs": [],
      "payable": false,
      "stateMutability": "nonpayable",
      "type": "function"
    },
    {
      "constant": true,
      "inputs": [
        {
          "name": "owner",
          "type": "address"
        },
        {
          "name": "operator",
          "type": "address"
        }
      ],
      "name": "isApprovedForAll",
      "outputs": [
        {
          "name": "",
          "type": "bool"
        }
      ],
      "payable": false,
      "stateMutability": "view",
      "type": "function"
    },
    {
      "constant": false,
      "inputs": [
        {
          "name": "newOwner",
          "type": "address"
        }
      ],
      "name": "transferOwnership",
      "outputs": [],
      "payable": false,
      "stateMutability": "nonpayable",
      "type": "function"
    },
    {
      "inputs": [
        {
          "name": "verifierAddress",
          "type": "address"
        },
        {
          "name": "tokenName",
          "type": "string"
        },
        {
          "name": "tokenSymbol",
          "type": "string"
        }
      ],
      "payable": false,
      "stateMutability": "nonpayable",
      "type": "constructor"
    },
    {
      "anonymous": false,
      "inputs": [
        {
          "indexed": false,
          "name": "tokenId",
          "type": "string"
        },
        {
          "indexed": false,
          "name": "inputs",
          "type": "uint256[2]"
        }
      ],
      "name": "SolutionAdded",
      "type": "event"
    },
    {
      "anonymous": false,
      "inputs": [
        {
          "indexed": true,
          "name": "from",
          "type": "address"
        },
        {
          "indexed": true,
          "name": "to",
          "type": "address"
        },
        {
          "indexed": true,
          "name": "tokenId",
          "type": "uint256"
        }
      ],
      "name": "Transfer",
      "type": "event"
    },
    {
      "anonymous": false,
      "inputs": [
        {
          "indexed": true,
          "name": "owner",
          "type": "address"
        },
        {
          "indexed": true,
          "name": "approved",
          "type": "address"
        },
        {
          "indexed": true,
          "name": "tokenId",
          "type": "uint256"
        }
      ],
      "name": "Approval",
      "type": "event"
    },
    {
      "anonymous": false,
      "inputs": [
        {
          "indexed": true,
          "name": "owner",
          "type": "address"
        },
        {
          "indexed": true,
          "name": "operator",
          "type": "address"
        },
        {
          "indexed": false,
          "name": "approved",
          "type": "bool"
        }
      ],
      "name": "ApprovalForAll",
      "type": "event"
    },
    {
      "anonymous": false,
      "inputs": [
        {
          "indexed": false,
          "name": "txnSender",
          "type": "address"
        }
      ],
      "name": "Paused",
      "type": "event"
    },
    {
      "anonymous": false,
      "inputs": [
        {
          "indexed": false,
          "name": "txnSender",
          "type": "address"
        }
      ],
      "name": "Unpaused",
      "type": "event"
    },
    {
      "anonymous": false,
      "inputs": [
        {
          "indexed": false,
          "name": "oldOwner",
          "type": "address"
        },
        {
          "indexed": false,
          "name": "newOwner",
          "type": "address"
        }
      ],
      "name": "ownershipTransferred",
      "type": "event"
    }
  ],
  "bytecode": "0x60806040523480156200001157600080fd5b5060405162003e5738038062003e57833981018060405260608110156200003757600080fd5b810190808051906020019092919080516401000000008111156200005a57600080fd5b828101905060208101848111156200007157600080fd5b81518560018202830111640100000000821117156200008f57600080fd5b50509291906020018051640100000000811115620000ac57600080fd5b82810190506020810184811115620000c357600080fd5b8151856001820283011164010000000082111715620000e157600080fd5b5050929190505050818181816040518060600160405280603f815260200162003e18603f9139336000806101000a81548173ffffffffffffffffffffffffffffffffffffffff021916908373ffffffffffffffffffffffffffffffffffffffff16021790555060007f7699c77f2404f9b6bbd003861bb4af8ae70b205e19e73d7ec7fe4590db59a6b7816000809054906101000a900473ffffffffffffffffffffffffffffffffffffffff16604051808373ffffffffffffffffffffffffffffffffffffffff1673ffffffffffffffffffffffffffffffffffffffff1681526020018273ffffffffffffffffffffffffffffffffffffffff1673ffffffffffffffffffffffffffffffffffffffff1681526020019250505060405180910390a15060008060146101000a81548160ff021916908315150217905550620002346301ffc9a760e01b6200031660201b60201c565b6200024c6380ac58cd60e01b6200031660201b60201c565b6200026463780e9d6360e01b6200031660201b60201c565b82600f90805190602001906200027c929190620003b8565b50816010908051906020019062000295929190620003b8565b508060119080519060200190620002ae929190620003b8565b50620002c7635b5e139f60e01b6200031660201b60201c565b505050505082601360006101000a81548173ffffffffffffffffffffffffffffffffffffffff021916908373ffffffffffffffffffffffffffffffffffffffff16021790555050505062000467565b63ffffffff60e01b817bffffffffffffffffffffffffffffffffffffffffffffffffffffffff1916141515156200034c57600080fd5b6001806000837bffffffffffffffffffffffffffffffffffffffffffffffffffffffff19167bffffffffffffffffffffffffffffffffffffffffffffffffffffffff1916815260200190815260200160002060006101000a81548160ff02191690831515021790555050565b828054600181600116156101000203166002900490600052602060002090601f016020900481019282601f10620003fb57805160ff19168380011785556200042c565b828001600101855582156200042c579182015b828111156200042b5782518255916020019190600101906200040e565b5b5090506200043b91906200043f565b5090565b6200046491905b808211156200046057600081600090555060010162000446565b5090565b90565b6139a180620004776000396000f3fe608060405234801561001057600080fd5b506004361061018d5760003560e01c80634f6ccce7116100de578063a22cb46511610097578063d547cfb711610071578063d547cfb714610f43578063d95b322114610fc6578063e985e9c514610ff6578063f2fde38b146110725761018d565b8063a22cb46514610d47578063b88d4fde14610d97578063c87b56dd14610e9c5761018d565b80634f6ccce7146109fd5780636352211e14610a3f57806370a0823114610aad578063893d20e814610b0557806395d89b4114610b4f578063960a17f614610bd25761018d565b806318160ddd1161014b5780632f745c59116101255780632f745c591461076b57806338bbfa50146107cd57806340c10f191461092957806342842e0e1461098f5761018d565b806318160ddd1461061a57806323b872dd1461063857806327dc297e146106a65761018d565b80624ac5031461019257806301ffc9a7146102fd57806306fdde0314610362578063081812fc146103e5578063095ea7b31461045357806313d3fbcc146104a1575b600080fd5b6102fb60048036036101608110156101a957600080fd5b810190808035906020019092919080604001906002806020026040519081016040528092919082600260200280828437600081840152601f19601f82011690508083019250505050505091929192908060800190600280602002604051908101604052809291906000905b82821015610268578382604002016002806020026040519081016040528092919082600260200280828437600081840152601f19601f82011690508083019250505050505081526020019060010190610214565b50505050919291929080604001906002806020026040519081016040528092919082600260200280828437600081840152601f19601f820116905080830192505050505050919291929080604001906002806020026040519081016040528092919082600260200280828437600081840152601f19601f82011690508083019250505050505091929192905050506110b6565b005b6103486004803603602081101561031357600080fd5b8101908080357bffffffffffffffffffffffffffffffffffffffffffffffffffffffff1916906020019092919050505061132a565b604051808215151515815260200191505060405180910390f35b61036a611392565b6040518080602001828103825283818151815260200191508051906020019080838360005b838110156103aa57808201518184015260208101905061038f565b50505050905090810190601f1680156103d75780820380516001836020036101000a031916815260200191505b509250505060405180910390f35b610411600480360360208110156103fb57600080fd5b8101908080359060200190929190505050611434565b604051808273ffffffffffffffffffffffffffffffffffffffff1673ffffffffffffffffffffffffffffffffffffffff16815260200191505060405180910390f35b61049f6004803603604081101561046957600080fd5b81019080803573ffffffffffffffffffffffffffffffffffffffff16906020019092919080359060200190929190505050611471565b005b61060060048036036101408110156104b857600080fd5b8101908080604001906002806020026040519081016040528092919082600260200280828437600081840152601f19601f82011690508083019250505050505091929192908060800190600280602002604051908101604052809291906000905b8282101561056d578382604002016002806020026040519081016040528092919082600260200280828437600081840152601f19601f82011690508083019250505050505081526020019060010190610519565b50505050919291929080604001906002806020026040519081016040528092919082600260200280828437600081840152601f19601f820116905080830192505050505050919291929080604001906002806020026040519081016040528092919082600260200280828437600081840152601f19601f8201169050808301925050505050509192919290505050611707565b604051808215151515815260200191505060405180910390f35b610622611744565b6040518082815260200191505060405180910390f35b6106a46004803603606081101561064e57600080fd5b81019080803573ffffffffffffffffffffffffffffffffffffffff169060200190929190803573ffffffffffffffffffffffffffffffffffffffff16906020019092919080359060200190929190505050611751565b005b610769600480360360408110156106bc57600080fd5b8101908080359060200190929190803590602001906401000000008111156106e357600080fd5b8201836020820111156106f557600080fd5b8035906020019184600183028401116401000000008311171561071757600080fd5b91908080601f016020809104026020016040519081016040528093929190818152602001838380828437600081840152601f19601f820116905080830192505050505050509192919290505050611776565b005b6107b76004803603604081101561078157600080fd5b81019080803573ffffffffffffffffffffffffffffffffffffffff169060200190929190803590602001909291905050506117b9565b6040518082815260200191505060405180910390f35b610927600480360360608110156107e357600080fd5b81019080803590602001909291908035906020019064010000000081111561080a57600080fd5b82018360208201111561081c57600080fd5b8035906020019184600183028401116401000000008311171561083e57600080fd5b91908080601f016020809104026020016040519081016040528093929190818152602001838380828437600081840152601f19601f820116905080830192505050505050509192919290803590602001906401000000008111156108a157600080fd5b8201836020820111156108b357600080fd5b803590602001918460018302840111640100000000831117156108d557600080fd5b91908080601f016020809104026020016040519081016040528093929190818152602001838380828437600081840152601f19601f820116905080830192505050505050509192919290505050611830565b005b6109756004803603604081101561093f57600080fd5b81019080803573ffffffffffffffffffffffffffffffffffffffff16906020019092919080359060200190929190505050611835565b604051808215151515815260200191505060405180910390f35b6109fb600480360360608110156109a557600080fd5b81019080803573ffffffffffffffffffffffffffffffffffffffff169060200190929190803573ffffffffffffffffffffffffffffffffffffffff16906020019092919080359060200190929190505050611918565b005b610a2960048036036020811015610a1357600080fd5b8101908080359060200190929190505050611938565b6040518082815260200191505060405180910390f35b610a6b60048036036020811015610a5557600080fd5b8101908080359060200190929190505050611970565b604051808273ffffffffffffffffffffffffffffffffffffffff1673ffffffffffffffffffffffffffffffffffffffff16815260200191505060405180910390f35b610aef60048036036020811015610ac357600080fd5b81019080803573ffffffffffffffffffffffffffffffffffffffff1690602001909291905050506119ad565b6040518082815260200191505060405180910390f35b610b0d6119fd565b604051808273ffffffffffffffffffffffffffffffffffffffff1673ffffffffffffffffffffffffffffffffffffffff16815260200191505060405180910390f35b610b57611a26565b6040518080602001828103825283818151815260200191508051906020019080838360005b83811015610b97578082015181840152602081019050610b7c565b50505050905090810190601f168015610bc45780820380516001836020036101000a031916815260200191505b509250505060405180910390f35b610d316004803603610140811015610be957600080fd5b8101908080604001906002806020026040519081016040528092919082600260200280828437600081840152601f19601f82011690508083019250505050505091929192908060800190600280602002604051908101604052809291906000905b82821015610c9e578382604002016002806020026040519081016040528092919082600260200280828437600081840152601f19601f82011690508083019250505050505081526020019060010190610c4a565b50505050919291929080604001906002806020026040519081016040528092919082600260200280828437600081840152601f19601f820116905080830192505050505050919291929080604001906002806020026040519081016040528092919082600260200280828437600081840152601f19601f8201169050808301925050505050509192919290505050611ac8565b6040518082815260200191505060405180910390f35b610d9560048036036040811015610d5d57600080fd5b81019080803573ffffffffffffffffffffffffffffffffffffffff169060200190929190803515159060200190929190505050611bd6565b005b610e9a60048036036080811015610dad57600080fd5b81019080803573ffffffffffffffffffffffffffffffffffffffff169060200190929190803573ffffffffffffffffffffffffffffffffffffffff1690602001909291908035906020019092919080359060200190640100000000811115610e1457600080fd5b820183602082011115610e2657600080fd5b80359060200191846001830284011164010000000083111715610e4857600080fd5b91908080601f016020809104026020016040519081016040528093929190818152602001838380828437600081840152601f19601f820116905080830192505050505050509192919290505050611d12565b005b610ec860048036036020811015610eb257600080fd5b8101908080359060200190929190505050611d3a565b6040518080602001828103825283818151815260200191508051906020019080838360005b83811015610f08578082015181840152602081019050610eed565b50505050905090810190601f168015610f355780820380516001836020036101000a031916815260200191505b509250505060405180910390f35b610f4b611e03565b6040518080602001828103825283818151815260200191508051906020019080838360005b83811015610f8b578082015181840152602081019050610f70565b50505050905090810190601f168015610fb85780820380516001836020036101000a031916815260200191505b509250505060405180910390f35b610ff460048036036020811015610fdc57600080fd5b81019080803515159060200190929190505050611ea5565b005b6110586004803603604081101561100c57600080fd5b81019080803573ffffffffffffffffffffffffffffffffffffffff169060200190929190803573ffffffffffffffffffffffffffffffffffffffff169060200190929190505050612084565b604051808215151515815260200191505060405180910390f35b6110b46004803603602081101561108857600080fd5b81019080803573ffffffffffffffffffffffffffffffffffffffff169060200190929190505050612118565b005b8383838360006110c885858585611ac8565b90506015600082815260200190815260200160002060009054906101000a900460ff16151515611160576040517f08c379a00000000000000000000000000000000000000000000000000000000081526004018080602001828103825260178152602001807f536f6c7574696f6e20616c72656164792065786973747300000000000000000081525060200191505060405180910390fd5b60011515601360009054906101000a900473ffffffffffffffffffffffffffffffffffffffff1673ffffffffffffffffffffffffffffffffffffffff1663621e9ec08b8b8b8b6040518563ffffffff1660e01b81526004018085600260200280838360005b838110156111e05780820151818401526020810190506111c5565b505050509050018460026000925b818410156112345782846020020151600260200280838360005b83811015611223578082015181840152602081019050611208565b5050505090500192600101926111ee565b9250505083600260200280838360005b8381101561125f578082015181840152602081019050611244565b5050505090500182600260200280838360005b8381101561128d578082015181840152602081019050611272565b5050505090500194505050505060206040518083038186803b1580156112b257600080fd5b505afa1580156112c6573d6000803e3d6000fd5b505050506040513d60208110156112dc57600080fd5b81019080805190602001909291905050501515141561131e576112ff338b6122d7565b600061130d8a8a8a8a611ac8565b905061131c8a8a8a8a856122f8565b505b50505050505050505050565b600060016000837bffffffffffffffffffffffffffffffffffffffffffffffffffffffff19167bffffffffffffffffffffffffffffffffffffffffffffffffffffffff1916815260200190815260200160002060009054906101000a900460ff169050919050565b6060600f8054600181600116156101000203166002900480601f01602080910402602001604051908101604052809291908181526020018280546001816001161561010002031660029004801561142a5780601f106113ff5761010080835404028352916020019161142a565b820191906000526020600020905b81548152906001019060200180831161140d57829003601f168201915b5050505050905090565b60006003600083815260200190815260200160002060009054906101000a900473ffffffffffffffffffffffffffffffffffffffff169050919050565b6114796119fd565b73ffffffffffffffffffffffffffffffffffffffff168273ffffffffffffffffffffffffffffffffffffffff16141515156114ff576040517f08c379a000000000000000000000000000000000000000000000000000000000815260040180806020018281038252603581526020018061390e6035913960400191505060405180910390fd5b60006002600083815260200190815260200160002060009054906101000a900473ffffffffffffffffffffffffffffffffffffffff16905061153f6119fd565b73ffffffffffffffffffffffffffffffffffffffff163373ffffffffffffffffffffffffffffffffffffffff1614806115fe5750600560008273ffffffffffffffffffffffffffffffffffffffff1673ffffffffffffffffffffffffffffffffffffffff16815260200190815260200160002060003373ffffffffffffffffffffffffffffffffffffffff1673ffffffffffffffffffffffffffffffffffffffff16815260200190815260200160002060009054906101000a900460ff165b1515611655576040517f08c379a00000000000000000000000000000000000000000000000000000000081526004018080602001828103825260338152602001806139436033913960400191505060405180910390fd5b826003600084815260200190815260200160002060006101000a81548173ffffffffffffffffffffffffffffffffffffffff021916908373ffffffffffffffffffffffffffffffffffffffff160217905550818373ffffffffffffffffffffffffffffffffffffffff168273ffffffffffffffffffffffffffffffffffffffff167f8c5be1e5ebec7d5bd14f71427d1e84f3dd0314c0f7b2291e5b200ac8c7c3b92560405160405180910390a4505050565b60008061171686868686611ac8565b90506015600082815260200190815260200160002060009054906101000a900460ff16915050949350505050565b6000600880549050905090565b61175b33826123e9565b151561176657600080fd5b61177183838361247e565b505050565b6117b5828260006040519080825280601f01601f1916602001820160405280156117af5781602001600182028038833980820191505090505b50611830565b5050565b60006117c4836119ad565b821015156117d157600080fd5b600660008473ffffffffffffffffffffffffffffffffffffffff1673ffffffffffffffffffffffffffffffffffffffff1681526020019081526020016000208281548110151561181d57fe5b9060005260206000200154905092915050565b505050565b60008060009054906101000a900473ffffffffffffffffffffffffffffffffffffffff1673ffffffffffffffffffffffffffffffffffffffff163373ffffffffffffffffffffffffffffffffffffffff161415156118fb576040517f08c379a000000000000000000000000000000000000000000000000000000000815260040180806020018281038252601c8152602001807f43616c6c6572206973206e6f7420636f6e7472616374206f776e65720000000081525060200191505060405180910390fd5b61190583836122d7565b61190e826124a2565b6001905092915050565b61193383838360405180602001604052806000815250611d12565b505050565b6000611942611744565b8210151561194f57600080fd5b60088281548110151561195e57fe5b90600052602060002001549050919050565b60006002600083815260200190815260200160002060009054906101000a900473ffffffffffffffffffffffffffffffffffffffff169050919050565b60006119f6600460008473ffffffffffffffffffffffffffffffffffffffff1673ffffffffffffffffffffffffffffffffffffffff168152602001908152602001600020612598565b9050919050565b60008060009054906101000a900473ffffffffffffffffffffffffffffffffffffffff16905090565b606060108054600181600116156101000203166002900480601f016020809104026020016040519081016040528092919081815260200182805460018160011615610100020316600290048015611abe5780601f10611a9357610100808354040283529160200191611abe565b820191906000526020600020905b815481529060010190602001808311611aa157829003601f168201915b5050505050905090565b6000848484846040516020018085600260200280838360005b83811015611afc578082015181840152602081019050611ae1565b505050509050018460026000925b81841015611b505782846020020151600260200280838360005b83811015611b3f578082015181840152602081019050611b24565b505050509050019260010192611b0a565b9250505083600260200280838360005b83811015611b7b578082015181840152602081019050611b60565b5050505090500182600260200280838360005b83811015611ba9578082015181840152602081019050611b8e565b50505050905001945050505050604051602081830303815290604052805190602001209050949350505050565b3373ffffffffffffffffffffffffffffffffffffffff168273ffffffffffffffffffffffffffffffffffffffff1614151515611c1157600080fd5b80600560003373ffffffffffffffffffffffffffffffffffffffff1673ffffffffffffffffffffffffffffffffffffffff16815260200190815260200160002060008473ffffffffffffffffffffffffffffffffffffffff1673ffffffffffffffffffffffffffffffffffffffff16815260200190815260200160002060006101000a81548160ff0219169083151502179055508173ffffffffffffffffffffffffffffffffffffffff163373ffffffffffffffffffffffffffffffffffffffff167f17307eab39ab6107e8899845ad3d59bd9653f200f220920489ca2b5937696c3183604051808215151515815260200191505060405180910390a35050565b611d1d848484611751565b611d29848484846125a6565b1515611d3457600080fd5b50505050565b6060611d4582612791565b1515611d5057600080fd5b601260008381526020019081526020016000208054600181600116156101000203166002900480601f016020809104026020016040519081016040528092919081815260200182805460018160011615610100020316600290048015611df75780601f10611dcc57610100808354040283529160200191611df7565b820191906000526020600020905b815481529060010190602001808311611dda57829003601f168201915b50505050509050919050565b606060118054600181600116156101000203166002900480601f016020809104026020016040519081016040528092919081815260200182805460018160011615610100020316600290048015611e9b5780601f10611e7057610100808354040283529160200191611e9b565b820191906000526020600020905b815481529060010190602001808311611e7e57829003601f168201915b5050505050905090565b6000809054906101000a900473ffffffffffffffffffffffffffffffffffffffff1673ffffffffffffffffffffffffffffffffffffffff163373ffffffffffffffffffffffffffffffffffffffff16141515611f69576040517f08c379a000000000000000000000000000000000000000000000000000000000815260040180806020018281038252601c8152602001807f43616c6c6572206973206e6f7420636f6e7472616374206f776e65720000000081525060200191505060405180910390fd5b801515600060149054906101000a900460ff1615151415156120815780600060146101000a81548160ff021916908315150217905550600060149054906101000a900460ff161561201c577f62e78cea01bee320cd4e420270b5ea74000d11b0c9f74754ebdbfc544b05a25833604051808273ffffffffffffffffffffffffffffffffffffffff1673ffffffffffffffffffffffffffffffffffffffff16815260200191505060405180910390a1612080565b7f5db9ee0a495bf2e6ff9c91a7834c1ba4fdd244a5e8aa4e537bd38aeae4b073aa33604051808273ffffffffffffffffffffffffffffffffffffffff1673ffffffffffffffffffffffffffffffffffffffff16815260200191505060405180910390a15b5b50565b6000600560008473ffffffffffffffffffffffffffffffffffffffff1673ffffffffffffffffffffffffffffffffffffffff16815260200190815260200160002060008373ffffffffffffffffffffffffffffffffffffffff1673ffffffffffffffffffffffffffffffffffffffff16815260200190815260200160002060009054906101000a900460ff16905092915050565b6000809054906101000a900473ffffffffffffffffffffffffffffffffffffffff1673ffffffffffffffffffffffffffffffffffffffff163373ffffffffffffffffffffffffffffffffffffffff161415156121dc576040517f08c379a000000000000000000000000000000000000000000000000000000000815260040180806020018281038252601c8152602001807f43616c6c6572206973206e6f7420636f6e7472616374206f776e65720000000081525060200191505060405180910390fd5b806000806101000a81548173ffffffffffffffffffffffffffffffffffffffff021916908373ffffffffffffffffffffffffffffffffffffffff1602179055507f7699c77f2404f9b6bbd003861bb4af8ae70b205e19e73d7ec7fe4590db59a6b7336000809054906101000a900473ffffffffffffffffffffffffffffffffffffffff16604051808373ffffffffffffffffffffffffffffffffffffffff1673ffffffffffffffffffffffffffffffffffffffff1681526020018273ffffffffffffffffffffffffffffffffffffffff1673ffffffffffffffffffffffffffffffffffffffff1681526020019250505060405180910390a150565b6122e18282612803565b6122eb82826129ff565b6122f481612ac6565b5050565b6123006136e2565b8581600001819052508481602001819052508381604001819052508281606001819052506014819080600181540180825580915050906001820390600052602060002090600a020160009091929091909150600082015181600001906002612369929190613723565b50602082015181600201906002612381929190613763565b50604082015181600601906002612399929190613723565b506060820151816008019060026123b1929190613723565b5050505060016015600084815260200190815260200160002060006101000a81548160ff021916908315150217905550505050505050565b6000806123f583611970565b90508073ffffffffffffffffffffffffffffffffffffffff168473ffffffffffffffffffffffffffffffffffffffff16148061246457508373ffffffffffffffffffffffffffffffffffffffff1661244c84611434565b73ffffffffffffffffffffffffffffffffffffffff16145b8061247557506124748185612084565b5b91505092915050565b612489838383612b12565b6124938382612e20565b61249d82826129ff565b505050565b6124ab81612791565b15156124b657600080fd5b60606124c182612fc4565b9050606061256960118054600181600116156101000203166002900480601f01602080910402602001604051908101604052809291908181526020018280546001816001161561010002031660029004801561255e5780601f106125335761010080835404028352916020019161255e565b820191906000526020600020905b81548152906001019060200180831161254157829003601f168201915b5050505050836130fe565b9050806012600085815260200190815260200160002090805190602001906125929291906137b3565b50505050565b600081600001549050919050565b60006125c78473ffffffffffffffffffffffffffffffffffffffff16613142565b15156125d65760019050612789565b60008473ffffffffffffffffffffffffffffffffffffffff1663150b7a02338887876040518563ffffffff1660e01b8152600401808573ffffffffffffffffffffffffffffffffffffffff1673ffffffffffffffffffffffffffffffffffffffff1681526020018473ffffffffffffffffffffffffffffffffffffffff1673ffffffffffffffffffffffffffffffffffffffff16815260200183815260200180602001828103825283818151815260200191508051906020019080838360005b838110156126b1578082015181840152602081019050612696565b50505050905090810190601f1680156126de5780820380516001836020036101000a031916815260200191505b5095505050505050602060405180830381600087803b15801561270057600080fd5b505af1158015612714573d6000803e3d6000fd5b505050506040513d602081101561272a57600080fd5b8101908080519060200190929190505050905063150b7a0260e01b7bffffffffffffffffffffffffffffffffffffffffffffffffffffffff1916817bffffffffffffffffffffffffffffffffffffffffffffffffffffffff1916149150505b949350505050565b6000806002600084815260200190815260200160002060009054906101000a900473ffffffffffffffffffffffffffffffffffffffff169050600073ffffffffffffffffffffffffffffffffffffffff168173ffffffffffffffffffffffffffffffffffffffff161415915050919050565b61280c81612791565b151515612881576040517f08c379a00000000000000000000000000000000000000000000000000000000081526004018080602001828103825260148152602001807f746f6b656e20616c72656164792065786973747300000000000000000000000081525060200191505060405180910390fd5b816002600083815260200190815260200160002060006101000a81548173ffffffffffffffffffffffffffffffffffffffff021916908373ffffffffffffffffffffffffffffffffffffffff16021790555061291a600460008473ffffffffffffffffffffffffffffffffffffffff1673ffffffffffffffffffffffffffffffffffffffff16815260200190815260200160002061318d565b61299f6040518060400160405280601081526020017f746f6b656e20636f756e74203d2025640000000000000000000000000000000081525061299a600460008673ffffffffffffffffffffffffffffffffffffffff1673ffffffffffffffffffffffffffffffffffffffff168152602001908152602001600020612598565b6131a3565b808273ffffffffffffffffffffffffffffffffffffffff16600073ffffffffffffffffffffffffffffffffffffffff167fddf252ad1be2c89b69c2b068fc378daa952ba7f163c4a11628f55a4df523b3ef60405160405180910390a45050565b600660008373ffffffffffffffffffffffffffffffffffffffff1673ffffffffffffffffffffffffffffffffffffffff168152602001908152602001600020805490506007600083815260200190815260200160002081905550600660008373ffffffffffffffffffffffffffffffffffffffff1673ffffffffffffffffffffffffffffffffffffffff1681526020019081526020016000208190806001815401808255809150509060018203906000526020600020016000909192909190915055505050565b6008805490506009600083815260200190815260200160002081905550600881908060018154018082558091505090600182039060005260206000200160009091929091909150555050565b6002600082815260200190815260200160002060009054906101000a900473ffffffffffffffffffffffffffffffffffffffff1673ffffffffffffffffffffffffffffffffffffffff168373ffffffffffffffffffffffffffffffffffffffff16141515612be8576040517f08c379a000000000000000000000000000000000000000000000000000000000815260040180806020018281038252601c8152602001807f46726f6d20616464726573732073686f756c64206265206f776e65720000000081525060200191505060405180910390fd5b600073ffffffffffffffffffffffffffffffffffffffff168273ffffffffffffffffffffffffffffffffffffffff1614151515612c8d576040517f08c379a000000000000000000000000000000000000000000000000000000000815260040180806020018281038252601a8152602001807f56616c69642061646472657373206e6f742070726f766964656400000000000081525060200191505060405180910390fd5b60006003600083815260200190815260200160002060006101000a81548173ffffffffffffffffffffffffffffffffffffffff021916908373ffffffffffffffffffffffffffffffffffffffff160217905550612d27600460008573ffffffffffffffffffffffffffffffffffffffff1673ffffffffffffffffffffffffffffffffffffffff1681526020019081526020016000206132aa565b816002600083815260200190815260200160002060006101000a81548173ffffffffffffffffffffffffffffffffffffffff021916908373ffffffffffffffffffffffffffffffffffffffff160217905550612dc0600460008473ffffffffffffffffffffffffffffffffffffffff1673ffffffffffffffffffffffffffffffffffffffff16815260200190815260200160002061318d565b808273ffffffffffffffffffffffffffffffffffffffff168473ffffffffffffffffffffffffffffffffffffffff167fddf252ad1be2c89b69c2b068fc378daa952ba7f163c4a11628f55a4df523b3ef60405160405180910390a4505050565b6000612e786001600660008673ffffffffffffffffffffffffffffffffffffffff1673ffffffffffffffffffffffffffffffffffffffff168152602001908152602001600020805490506132cd90919063ffffffff16565b90506000600760008481526020019081526020016000205490508181141515612f6b576000600660008673ffffffffffffffffffffffffffffffffffffffff1673ffffffffffffffffffffffffffffffffffffffff16815260200190815260200160002083815481101515612ee957fe5b9060005260206000200154905080600660008773ffffffffffffffffffffffffffffffffffffffff1673ffffffffffffffffffffffffffffffffffffffff16815260200190815260200160002083815481101515612f4357fe5b9060005260206000200181905550816007600083815260200190815260200160002081905550505b600660008573ffffffffffffffffffffffffffffffffffffffff1673ffffffffffffffffffffffffffffffffffffffff168152602001908152602001600020805480919060019003612fbd9190613833565b5050505050565b6060600082141561300c576040518060400160405280600181526020017f300000000000000000000000000000000000000000000000000000000000000081525090506130f9565b600082905060005b60008214151561303a578080600101915050600a8281151561303257fe5b049150613014565b6060816040519080825280601f01601f19166020018201604052801561306f5781602001600182028038833980820191505090505b50905060006001830390505b6000861415156130f157600a8681151561309157fe5b0660300160f81b8282806001900393508151811015156130ad57fe5b9060200101907effffffffffffffffffffffffffffffffffffffffffffffffffffffffffffff1916908160001a905350600a868115156130e957fe5b04955061307b565b819450505050505b919050565b606061313a8383604051806020016040528060008152506040518060200160405280600081525060405180602001604052806000815250613317565b905092915050565b60008060007fc5d2460186f7233c927e7db2dcc703c0e500b653ca82273b7bfad8045d85a47060001b9050833f915080821415801561318457506000801b8214155b92505050919050565b6001816000016000828254019250508190555050565b6132a682826040516024018080602001838152602001828103825284818151815260200191508051906020019080838360005b838110156131f15780820151818401526020810190506131d6565b50505050905090810190601f16801561321e5780820380516001836020036101000a031916815260200191505b5093505050506040516020818303038152906040527f9710a9d0000000000000000000000000000000000000000000000000000000007bffffffffffffffffffffffffffffffffffffffffffffffffffffffff19166020820180517bffffffffffffffffffffffffffffffffffffffffffffffffffffffff83818316178352505050506135f7565b5050565b6132c2600182600001546132cd90919063ffffffff16565b816000018190555050565b600061330f83836040518060400160405280601e81526020017f536166654d6174683a207375627472616374696f6e206f766572666c6f770000815250613620565b905092915050565b6060808690506060869050606086905060608690506060869050606081518351855187518951010101016040519080825280601f01601f1916602001820160405280156133735781602001600182028038833980820191505090505b509050606081905060008090506000809050600090505b88518110156133fe5788818151811015156133a157fe5b90602001015160f81c60f81b83838060010194508151811015156133c157fe5b9060200101907effffffffffffffffffffffffffffffffffffffffffffffffffffffffffffff1916908160001a905350808060010191505061338a565b600090505b875181101561347757878181518110151561341a57fe5b90602001015160f81c60f81b838380600101945081518110151561343a57fe5b9060200101907effffffffffffffffffffffffffffffffffffffffffffffffffffffffffffff1916908160001a9053508080600101915050613403565b600090505b86518110156134f057868181518110151561349357fe5b90602001015160f81c60f81b83838060010194508151811015156134b357fe5b9060200101907effffffffffffffffffffffffffffffffffffffffffffffffffffffffffffff1916908160001a905350808060010191505061347c565b600090505b855181101561356957858181518110151561350c57fe5b90602001015160f81c60f81b838380600101945081518110151561352c57fe5b9060200101907effffffffffffffffffffffffffffffffffffffffffffffffffffffffffffff1916908160001a90535080806001019150506134f5565b600090505b84518110156135e257848181518110151561358557fe5b90602001015160f81c60f81b83838060010194508151811015156135a557fe5b9060200101907effffffffffffffffffffffffffffffffffffffffffffffffffffffffffffff1916908160001a905350808060010191505061356e565b82995050505050505050505095945050505050565b60008151905060006a636f6e736f6c652e6c6f679050602083016000808483855afa5050505050565b600083831115829015156136cf576040517f08c379a00000000000000000000000000000000000000000000000000000000081526004018080602001828103825283818151815260200191508051906020019080838360005b83811015613694578082015181840152602081019050613679565b50505050905090810190601f1680156136c15780820380516001836020036101000a031916815260200191505b509250505060405180910390fd5b5060008385039050809150509392505050565b6040518061014001604052806136f661385f565b8152602001613703613881565b815260200161371061385f565b815260200161371d61385f565b81525090565b8260028101928215613752579160200282015b82811115613751578251825591602001919060010190613736565b5b50905061375f91906138ae565b5090565b826002800281019282156137a2579160200282015b828111156137a157825182906002613791929190613723565b5091602001919060020190613778565b5b5090506137af91906138d3565b5090565b828054600181600116156101000203166002900490600052602060002090601f016020900481019282601f106137f457805160ff1916838001178555613822565b82800160010185558215613822579182015b82811115613821578251825591602001919060010190613806565b5b50905061382f91906138ae565b5090565b81548183558181111561385a5781836000526020600020918201910161385991906138ae565b5b505050565b6040518060400160405280600290602082028038833980820191505090505090565b60405180608001604052806002905b61389861385f565b8152602001906001900390816138905790505090565b6138d091905b808211156138cc5760008160009055506001016138b4565b5090565b90565b6138fc91905b808211156138f857600081816138ef91906138ff565b506002016138d9565b5090565b90565b50600081556001016000905556fe50617373656420616464726573732073686f756c64206e6f7420626520746865206f776e6572206f662074686520746f656b6e49646d6573736167652073656e6465722073686f756c64206265206f776e6572206f7220617070726f766564206f70657261746f72a165627a7a7230582087750f34e0325ed17e1722ec4a234bf9866c38071969c59e3f89a9d5729bdbbc002968747470733a2f2f73332d75732d776573742d322e616d617a6f6e6177732e636f6d2f756461636974792d626c6f636b636861696e2f63617073746f6e652f",
  "linkReferences": {},
  "deployedLinkReferences": {}
}