{
  "_format": "hh-sol-artifact-1",
  "contractName": "BN256G2",
  "sourceName": "contracts/verifier.sol",
  "abi": [
    {
      "constant": true,
      "inputs": [],
      "name": "GetFieldModulus",
      "outputs": [
        {
          "name": "",
          "type": "uint256"
        }
      ],
      "payable": false,
      "stateMutability": "pure",
      "type": "function"
    },
    {
      "constant": true,
      "inputs": [
        {
          "name": "pt1xx",
          "type": "uint256"
        },
        {
          "name": "pt1xy",
          "type": "uint256"
        },
        {
          "name": "pt1yx",
          "type": "uint256"
        },
        {
          "name": "pt1yy",
          "type": "uint256"
        },
        {
          "name": "pt2xx",
          "type": "uint256"
        },
        {
          "name": "pt2xy",
          "type": "uint256"
        },
        {
          "name": "pt2yx",
          "type": "uint256"
        },
        {
          "name": "pt2yy",
          "type": "uint256"
        }
      ],
      "name": "ECTwistAdd",
      "outputs": [
        {
          "name": "",
          "type": "uint256"
        },
        {
          "name": "",
          "type": "uint256"
        },
        {
          "name": "",
          "type": "uint256"
        },
        {
          "name": "",
          "type": "uint256"
        }
      ],
      "payable": false,
      "stateMutability": "view",
      "type": "function"
    },
    {
      "constant": true,
      "inputs": [
        {
          "name": "s",
          "type": "uint256"
        },
        {
          "name": "pt1xx",
          "type": "uint256"
        },
        {
          "name": "pt1xy",
          "type": "uint256"
        },
        {
          "name": "pt1yx",
          "type": "uint256"
        },
        {
          "name": "pt1yy",
          "type": "uint256"
        }
      ],
      "name": "ECTwistMul",
      "outputs": [
        {
          "name": "",
          "type": "uint256"
        },
        {
          "name": "",
          "type": "uint256"
        },
        {
          "name": "",
          "type": "uint256"
        },
        {
          "name": "",
          "type": "uint256"
        }
      ],
      "payable": false,
      "stateMutability": "view",
      "type": "function"
    }
  ],
  "bytecode": "0x61125f610028600b82828239805160001a607314151561001b57fe5b30600052607381538281f3fe730000000000000000000000000000000000000000301460806040526004361061004b5760003560e01c806355a3e90f1461005057806361a931ec1461006e578063b73ab75d1461010c575b600080fd5b61005861018b565b6040518082815260200191505060405180910390f35b6100e1600480360361010081101561008557600080fd5b8101908080359060200190929190803590602001909291908035906020019092919080359060200190929190803590602001909291908035906020019092919080359060200190929190803590602001909291905050506101b3565b6040518085815260200184815260200183815260200182815260200194505050505060405180910390f35b610160600480360360a081101561012257600080fd5b81019080803590602001909291908035906020019092919080359060200190929190803590602001909291908035906020019092919050505061036f565b6040518085815260200184815260200183815260200182815260200194505050505060405180910390f35b60007f30644e72e131a029b85045b68181585d97816a916871ca8d3c208c16d87cfd47905090565b60008060008060008c1480156101c9575060008b145b80156101d5575060008a145b80156101e15750600089145b1561023a576000881480156101f65750600087145b80156102025750600086145b801561020e5750600085145b1515610229576102208888888861047e565b151561022857fe5b5b878787879350935093509350610360565b60008814801561024a5750600087145b80156102565750600086145b80156102625750600085145b1561028c576102738c8c8c8c61047e565b151561027b57fe5b8b8b8b8b9350935093509350610360565b6102988c8c8c8c61047e565b15156102a057fe5b6102ac8888888861047e565b15156102b457fe5b6102bc611211565b6102d48d8d8d8d600160008f8f8f8f60016000610547565b90506103568160006006811015156102e857fe5b60200201518260016006811015156102fc57fe5b602002015183600260068110151561031057fe5b602002015184600360068110151561032457fe5b602002015185600460068110151561033857fe5b602002015186600560068110151561034c57fe5b6020020151610b97565b9450945094509450505b98509850985098945050505050565b60008060008060006001905060008914801561038b5750600088145b80156103975750600087145b80156103a35750600086145b156103b9576001985060019650600090506103ce565b6103c58989898961047e565b15156103cd57fe5b5b6103d6611211565b6103e68b8b8b8b8b876000610be9565b90506104688160006006811015156103fa57fe5b602002015182600160068110151561040e57fe5b602002015183600260068110151561042257fe5b602002015184600360068110151561043657fe5b602002015185600460068110151561044a57fe5b602002015186600560068110151561045e57fe5b6020020151610b97565b9550955095509550505095509550955095915050565b600080600080600061049287878989610cd7565b80945081955050506104a689898b8b610cd7565b80925081935050506104ba82828b8b610cd7565b80925081935050506104ce84848484610def565b809450819550505061052184847f2b149d40ceb8aaae81be18991be06ac3b5b4c5e559dbefa33267e6dc24a138e57e9713b03af0fed4cd2cafadeed8fdf4a74fa084e52d1852e4a2bd0685c315d2610def565b80945081955050506000841480156105395750600083145b945050505050949350505050565b61054f611211565b60008914801561055f5750600088145b156106025786868686868686600060068110151561057957fe5b6020020187600160068110151561058c57fe5b6020020188600260068110151561059f57fe5b602002018960036006811015156105b257fe5b602002018a60046006811015156105c557fe5b602002018b60056006811015156105d857fe5b60200201868152508681525086815250868152508681525086815250505050505050809050610b87565b6000831480156106125750600082145b156106b5578c8c8c8c8c8c86600060068110151561062c57fe5b6020020187600160068110151561063f57fe5b6020020188600260068110151561065257fe5b6020020189600360068110151561066557fe5b602002018a600460068110151561067857fe5b602002018b600560068110151561068b57fe5b60200201868152508681525086815250868152508681525086815250505050505050809050610b87565b6106c185858b8b610cd7565b80955081965050506106d58b8b8585610cd7565b8260026006811015156106e457fe5b602002018360036006811015156106f757fe5b602002018281525082815250505061071187878b8b610cd7565b80975081985050506107258d8d8585610cd7565b82600460068110151561073457fe5b6020020183600560068110151561074757fe5b602002018281525082815250505080600460068110151561076457fe5b602002015187148015610789575080600560068110151561078157fe5b602002015186145b156109225780600260068110151561079d57fe5b6020020151851480156107c257508060036006811015156107ba57fe5b602002015184145b1561086d576107d58d8d8d8d8d8d610e55565b8660006006811015156107e457fe5b602002018760016006811015156107f757fe5b6020020188600260068110151561080a57fe5b6020020189600360068110151561081d57fe5b602002018a600460068110151561083057fe5b602002018b600560068110151561084357fe5b60200201868152508681525086815250868152508681525086815250505050505050809050610b87565b600160006001600080600085955084945083935082925081915080905086600060068110151561089957fe5b602002018760016006811015156108ac57fe5b602002018860026006811015156108bf57fe5b602002018960036006811015156108d257fe5b602002018a60046006811015156108e557fe5b602002018b60056006811015156108f857fe5b60200201868152508681525086815250868152508681525086815250505050505050809050610b87565b61092e89898585610cd7565b8093508194505050610968858583600260068110151561094a57fe5b602002015184600360068110151561095e57fe5b6020020151610def565b809d50819e5050506109a2878783600460068110151561098457fe5b602002015184600560068110151561099857fe5b6020020151610def565b809b50819c5050506109b68b8b8d8d610cd7565b809950819a5050506109f089898360046006811015156109d257fe5b60200201518460056006811015156109e657fe5b6020020151610cd7565b8095508196505050610a0489898d8d610cd7565b809950819a505050610a1889898585610cd7565b826004600681101515610a2757fe5b60200201836005600681101515610a3a57fe5b6020020182815250828152505050610a548d8d8f8f610cd7565b8097508198505050610a6887878585610cd7565b8097508198505050610a7c87878b8b610def565b8097508198505050610a9085856002610ffd565b8093508194505050610aa487878585610def565b8097508198505050610ab88b8b8989610cd7565b826000600681101515610ac757fe5b60200201836001600681101515610ada57fe5b6020020182815250828152505050610af485858989610def565b809b50819c505050610b088d8d8d8d610cd7565b809b50819c505050610b428989836002600681101515610b2457fe5b6020020151846003600681101515610b3857fe5b6020020151610cd7565b809d50819e505050610b568b8b8f8f610def565b826002600681101515610b6557fe5b60200201836003600681101515610b7857fe5b60200201828152508281525050505b9c9b505050505050505050505050565b600080600080600080610baa8888611066565b8092508193505050610bbe8c8c8484610cd7565b8096508197505050610bd28a8a8484610cd7565b809450819550505050509650965096509692505050565b610bf1611211565b5b600088141515610ccc57600060018916141515610c9257610c8f816000600681101515610c1b57fe5b6020020151826001600681101515610c2f57fe5b6020020151836002600681101515610c4357fe5b6020020151846003600681101515610c5757fe5b6020020151856004600681101515610c6b57fe5b6020020151866005600681101515610c7f57fe5b60200201518d8d8d8d8d8d610547565b90505b610ca0878787878787610e55565b809750819850829950839a50849b50859c50505050505050600288811515610cc457fe5b049750610bf2565b979650505050505050565b600080610d5d7f30644e72e131a029b85045b68181585d97816a916871ca8d3c208c16d87cfd47801515610d0757fe5b8588097f30644e72e131a029b85045b68181585d97816a916871ca8d3c208c16d87cfd47801515610d3457fe5b8588097f30644e72e131a029b85045b68181585d97816a916871ca8d3c208c16d87cfd476111a3565b7f30644e72e131a029b85045b68181585d97816a916871ca8d3c208c16d87cfd47801515610d8757fe5b7f30644e72e131a029b85045b68181585d97816a916871ca8d3c208c16d87cfd47801515610db157fe5b8688097f30644e72e131a029b85045b68181585d97816a916871ca8d3c208c16d87cfd47801515610dde57fe5b868a09089150915094509492505050565b600080610e1d86857f30644e72e131a029b85045b68181585d97816a916871ca8d3c208c16d87cfd476111a3565b610e4886857f30644e72e131a029b85045b68181585d97816a916871ca8d3c208c16d87cfd476111a3565b9150915094509492505050565b600080600080600080610e6a8c8c6003610ffd565b8096508197505050610e7e86868e8e610cd7565b8096508197505050610e928a8a8a8a610cd7565b8098508199505050610ea68c8c8c8c610cd7565b8094508195505050610eba84848a8a610cd7565b8094508195505050610ece86868888610cd7565b809c50819d505050610ee284846008610ffd565b8092508193505050610ef68c8c8484610def565b809c50819d505050610f0a88888a8a610cd7565b8092508193505050610f1e84846004610ffd565b8094508195505050610f3284848e8e610def565b8094508195505050610f4684848888610cd7565b8094508195505050610f5a8a8a6008610ffd565b8096508197505050610f6e86868c8c610cd7565b8096508197505050610f8286868484610cd7565b8096508197505050610f9684848888610def565b8094508195505050610faa8c8c6002610ffd565b8096508197505050610fbe86868a8a610cd7565b8096508197505050610fd288888484610cd7565b8092508193505050610fe682826008610ffd565b809250819350505096509650965096509650969050565b6000807f30644e72e131a029b85045b68181585d97816a916871ca8d3c208c16d87cfd4780151561102a57fe5b8386097f30644e72e131a029b85045b68181585d97816a916871ca8d3c208c16d87cfd4780151561105757fe5b84860991509150935093915050565b60008060006111197f30644e72e131a029b85045b68181585d97816a916871ca8d3c208c16d87cfd4780151561109857fe5b7f30644e72e131a029b85045b68181585d97816a916871ca8d3c208c16d87cfd478015156110c257fe5b8788097f30644e72e131a029b85045b68181585d97816a916871ca8d3c208c16d87cfd478015156110ef57fe5b878809087f30644e72e131a029b85045b68181585d97816a916871ca8d3c208c16d87cfd476111bd565b90507f30644e72e131a029b85045b68181585d97816a916871ca8d3c208c16d87cfd4780151561114557fe5b8186097f30644e72e131a029b85045b68181585d97816a916871ca8d3c208c16d87cfd4780151561117257fe5b8286097f30644e72e131a029b85045b68181585d97816a916871ca8d3c208c16d87cfd470392509250509250929050565b6000818015156111af57fe5b838303850890509392505050565b60008060405160208152602080820152602060408201528460608201526002840360808201528360a082015260208160c08360056107d05a03fa9150805192505080151561120a57600080fd5b5092915050565b6040518060c0016040528060069060208202803883398082019150509050509056fea165627a7a7230582039458aac401f0926bc92822c4f6c0cdd95de77ef53e1cbf8f8d28b04ef18edc90029",
  "linkReferences": {},
  "deployedLinkReferences": {}
}