{
  "contractName": "Ownable",
  "abi": [
    {
      "constant": false,
      "inputs": [
        {
          "name": "newOwner",
          "type": "address"
        }
      ],
      "name": "transferOwnership",
      "outputs": [],
      "payable": false,
      "stateMutability": "nonpayable",
      "type": "function"
    }
  ],
  "bytecode": "0x6080604052348015600f57600080fd5b50609d8061001e6000396000f3fe6080604052348015600f57600080fd5b506004361060285760003560e01c8063f2fde38b14602d575b600080fd5b606c60048036036020811015604157600080fd5b81019080803573ffffffffffffffffffffffffffffffffffffffff169060200190929190505050606e565b005b5056fea165627a7a72305820a7bd149787688cbbe69f00c608fc852c020598091d829e9b2806d15f824a10060029",
  "source": "pragma solidity ^0.5.0;\n\nimport 'openzeppelin-solidity/contracts/utils/Address.sol';\nimport 'openzeppelin-solidity/contracts/drafts/Counters.sol';\nimport 'openzeppelin-solidity/contracts/math/SafeMath.sol';\nimport 'openzeppelin-solidity/contracts/token/ERC721/IERC721Receiver.sol';\nimport \"./Oraclize.sol\";\n\ncontract Ownable {\n    //  TODO's\n    //  1) create a private '_owner' variable of type address with a public getter function\n    //  2) create an internal constructor that sets the _owner var to the creater of the contract \n    //  3) create an 'onlyOwner' modifier that throws if called by any account other than the owner.\n    //  4) fill out the transferOwnership function\n    //  5) create an event that emits anytime ownerShip is transfered (including in the constructor)\n\n    function transferOwnership(address newOwner) public\n                                                // onlyOwner \n    {\n        // TODO add functionality to transfer control of the contract to a newOwner.\n        // make sure the new owner is a real address\n\n    }\n}\n\n//  TODO's: Create a Pausable contract that inherits from the Ownable contract\n//  1) create a private '_paused' variable of type bool\n//  2) create a public setter using the inherited onlyOwner modifier \n//  3) create an internal constructor that sets the _paused variable to false\n//  4) create 'whenNotPaused' & 'paused' modifier that throws in the appropriate situation\n//  5) create a Paused & Unpaused event that emits the address that triggered the event\n\ncontract ERC165 {\n    bytes4 private constant _INTERFACE_ID_ERC165 = 0x01ffc9a7;\n    /*\n     * 0x01ffc9a7 ===\n     *     bytes4(keccak256('supportsInterface(bytes4)'))\n     */\n\n    /**\n     * @dev a mapping of interface id to whether or not it's supported\n     */\n    mapping(bytes4 => bool) private _supportedInterfaces;\n\n    /**\n     * @dev A contract implementing SupportsInterfaceWithLookup\n     * implement ERC165 itself\n     */\n    constructor () internal {\n        _registerInterface(_INTERFACE_ID_ERC165);\n    }\n\n    /**\n     * @dev implement supportsInterface(bytes4) using a lookup table\n     */\n    function supportsInterface(bytes4 interfaceId) external view returns (bool) {\n        return _supportedInterfaces[interfaceId];\n    }\n\n    /**\n     * @dev internal method for registering an interface\n     */\n    function _registerInterface(bytes4 interfaceId) internal {\n        require(interfaceId != 0xffffffff);\n        _supportedInterfaces[interfaceId] = true;\n    }\n}\n\ncontract ERC721 is \n                // Pausable, \n                ERC165 {\n\n    event Transfer(address indexed from, address indexed to, uint256 indexed tokenId);\n\n    event Approval(address indexed owner, address indexed approved, uint256 indexed tokenId);\n\n    event ApprovalForAll(address indexed owner, address indexed operator, bool approved);\n    \n    using SafeMath for uint256;\n    using Address for address;\n    using Counters for Counters.Counter;\n\n    // Equals to `bytes4(keccak256(\"onERC721Received(address,address,uint256,bytes)\"))`\n    // which can be also obtained as `IERC721Receiver(0).onERC721Received.selector`\n    bytes4 private constant _ERC721_RECEIVED = 0x150b7a02;\n\n    // Mapping from token ID to owner\n    mapping (uint256 => address) private _tokenOwner;\n\n    // Mapping from token ID to approved address\n    mapping (uint256 => address) private _tokenApprovals;\n\n    // Mapping from owner to number of owned token\n    // IMPORTANT: this mapping uses Counters lib which is used to protect overflow when incrementing/decrementing a uint\n    // use the following functions when interacting with Counters: increment(), decrement(), and current() to get the value\n    // see: https://github.com/OpenZeppelin/openzeppelin-solidity/blob/master/contracts/drafts/Counters.sol\n    mapping (address => Counters.Counter) private _ownedTokensCount;\n\n    // Mapping from owner to operator approvals\n    mapping (address => mapping (address => bool)) private _operatorApprovals;\n\n    bytes4 private constant _INTERFACE_ID_ERC721 = 0x80ac58cd;\n\n    constructor () public {\n        // register the supported interfaces to conform to ERC721 via ERC165\n        _registerInterface(_INTERFACE_ID_ERC721);\n    }\n\n    function balanceOf(address owner) public view returns (uint256) {\n        // TODO return the token balance of given address\n        // TIP: remember the functions to use for Counters. you can refresh yourself with the link above\n    }\n\n    function ownerOf(uint256 tokenId) public view returns (address) {\n        // TODO return the owner of the given tokenId\n    }\n\n//    @dev Approves another address to transfer the given token ID\n    function approve(address to, uint256 tokenId) public {\n        \n        // TODO require the given address to not be the owner of the tokenId\n\n        // TODO require the msg sender to be the owner of the contract or isApprovedForAll() to be true\n\n        // TODO add 'to' address to token approvals\n\n        // TODO emit Approval Event\n\n    }\n\n    function getApproved(uint256 tokenId) public view returns (address) {\n        // TODO return token approval if it exists\n    }\n\n    /**\n     * @dev Sets or unsets the approval of a given operator\n     * An operator is allowed to transfer all tokens of the sender on their behalf\n     * @param to operator address to set the approval\n     * @param approved representing the status of the approval to be set\n     */\n    function setApprovalForAll(address to, bool approved) public {\n        require(to != msg.sender);\n        _operatorApprovals[msg.sender][to] = approved;\n        emit ApprovalForAll(msg.sender, to, approved);\n    }\n\n    /**\n     * @dev Tells whether an operator is approved by a given owner\n     * @param owner owner address which you want to query the approval of\n     * @param operator operator address which you want to query the approval of\n     * @return bool whether the given operator is approved by the given owner\n     */\n    function isApprovedForAll(address owner, address operator) public view returns (bool) {\n        return _operatorApprovals[owner][operator];\n    }\n\n    function transferFrom(address from, address to, uint256 tokenId) public {\n        require(_isApprovedOrOwner(msg.sender, tokenId));\n\n        _transferFrom(from, to, tokenId);\n    }\n\n    function safeTransferFrom(address from, address to, uint256 tokenId) public {\n        safeTransferFrom(from, to, tokenId, \"\");\n    }\n\n    function safeTransferFrom(address from, address to, uint256 tokenId, bytes memory _data) public {\n        transferFrom(from, to, tokenId);\n        require(_checkOnERC721Received(from, to, tokenId, _data));\n    }\n\n    /**\n     * @dev Returns whether the specified token exists\n     * @param tokenId uint256 ID of the token to query the existence of\n     * @return bool whether the token exists\n     */\n    function _exists(uint256 tokenId) internal view returns (bool) {\n        address owner = _tokenOwner[tokenId];\n        return owner != address(0);\n    }\n\n    /**\n     * @dev Returns whether the given spender can transfer a given token ID\n     * @param spender address of the spender to query\n     * @param tokenId uint256 ID of the token to be transferred\n     * @return bool whether the msg.sender is approved for the given token ID,\n     * is an operator of the owner, or is the owner of the token\n     */\n    function _isApprovedOrOwner(address spender, uint256 tokenId) internal view returns (bool) {\n        address owner = ownerOf(tokenId);\n        return (spender == owner || getApproved(tokenId) == spender || isApprovedForAll(owner, spender));\n    }\n\n    // @dev Internal function to mint a new token\n    // TIP: remember the functions to use for Counters. you can refresh yourself with the link above\n    function _mint(address to, uint256 tokenId) internal {\n\n        // TODO revert if given tokenId already exists or given address is invalid\n  \n        // TODO mint tokenId to given address & increase token count of owner\n\n        // TODO emit Transfer event\n    }\n\n    // @dev Internal function to transfer ownership of a given token ID to another address.\n    // TIP: remember the functions to use for Counters. you can refresh yourself with the link above\n    function _transferFrom(address from, address to, uint256 tokenId) internal {\n\n        // TODO: require from address is the owner of the given token\n\n        // TODO: require token is being transfered to valid address\n        \n        // TODO: clear approval\n\n        // TODO: update token counts & transfer ownership of the token ID \n\n        // TODO: emit correct event\n    }\n\n    /**\n     * @dev Internal function to invoke `onERC721Received` on a target address\n     * The call is not executed if the target address is not a contract\n     * @param from address representing the previous owner of the given token ID\n     * @param to target address that will receive the tokens\n     * @param tokenId uint256 ID of the token to be transferred\n     * @param _data bytes optional data to send along with the call\n     * @return bool whether the call correctly returned the expected magic value\n     */\n    function _checkOnERC721Received(address from, address to, uint256 tokenId, bytes memory _data)\n        internal returns (bool)\n    {\n        if (!to.isContract()) {\n            return true;\n        }\n\n        bytes4 retval = IERC721Receiver(to).onERC721Received(msg.sender, from, tokenId, _data);\n        return (retval == _ERC721_RECEIVED);\n    }\n\n    // @dev Private function to clear current approval of a given token ID\n    function _clearApproval(uint256 tokenId) private {\n        if (_tokenApprovals[tokenId] != address(0)) {\n            _tokenApprovals[tokenId] = address(0);\n        }\n    }\n}\n\ncontract ERC721Enumerable is ERC165, ERC721 {\n    // Mapping from owner to list of owned token IDs\n    mapping(address => uint256[]) private _ownedTokens;\n\n    // Mapping from token ID to index of the owner tokens list\n    mapping(uint256 => uint256) private _ownedTokensIndex;\n\n    // Array with all token ids, used for enumeration\n    uint256[] private _allTokens;\n\n    // Mapping from token id to position in the allTokens array\n    mapping(uint256 => uint256) private _allTokensIndex;\n\n    bytes4 private constant _INTERFACE_ID_ERC721_ENUMERABLE = 0x780e9d63;\n    /*\n     * 0x780e9d63 ===\n     *     bytes4(keccak256('totalSupply()')) ^\n     *     bytes4(keccak256('tokenOfOwnerByIndex(address,uint256)')) ^\n     *     bytes4(keccak256('tokenByIndex(uint256)'))\n     */\n\n    /**\n     * @dev Constructor function\n     */\n    constructor () public {\n        // register the supported interface to conform to ERC721Enumerable via ERC165\n        _registerInterface(_INTERFACE_ID_ERC721_ENUMERABLE);\n    }\n\n    /**\n     * @dev Gets the token ID at a given index of the tokens list of the requested owner\n     * @param owner address owning the tokens list to be accessed\n     * @param index uint256 representing the index to be accessed of the requested tokens list\n     * @return uint256 token ID at the given index of the tokens list owned by the requested address\n     */\n    function tokenOfOwnerByIndex(address owner, uint256 index) public view returns (uint256) {\n        require(index < balanceOf(owner));\n        return _ownedTokens[owner][index];\n    }\n\n    /**\n     * @dev Gets the total amount of tokens stored by the contract\n     * @return uint256 representing the total amount of tokens\n     */\n    function totalSupply() public view returns (uint256) {\n        return _allTokens.length;\n    }\n\n    /**\n     * @dev Gets the token ID at a given index of all the tokens in this contract\n     * Reverts if the index is greater or equal to the total number of tokens\n     * @param index uint256 representing the index to be accessed of the tokens list\n     * @return uint256 token ID at the given index of the tokens list\n     */\n    function tokenByIndex(uint256 index) public view returns (uint256) {\n        require(index < totalSupply());\n        return _allTokens[index];\n    }\n\n    /**\n     * @dev Internal function to transfer ownership of a given token ID to another address.\n     * As opposed to transferFrom, this imposes no restrictions on msg.sender.\n     * @param from current owner of the token\n     * @param to address to receive the ownership of the given token ID\n     * @param tokenId uint256 ID of the token to be transferred\n     */\n    function _transferFrom(address from, address to, uint256 tokenId) internal {\n        super._transferFrom(from, to, tokenId);\n\n        _removeTokenFromOwnerEnumeration(from, tokenId);\n\n        _addTokenToOwnerEnumeration(to, tokenId);\n    }\n\n    /**\n     * @dev Internal function to mint a new token\n     * Reverts if the given token ID already exists\n     * @param to address the beneficiary that will own the minted token\n     * @param tokenId uint256 ID of the token to be minted\n     */\n    function _mint(address to, uint256 tokenId) internal {\n        super._mint(to, tokenId);\n\n        _addTokenToOwnerEnumeration(to, tokenId);\n\n        _addTokenToAllTokensEnumeration(tokenId);\n    }\n\n    /**\n     * @dev Gets the list of token IDs of the requested owner\n     * @param owner address owning the tokens\n     * @return uint256[] List of token IDs owned by the requested address\n     */\n    function _tokensOfOwner(address owner) internal view returns (uint256[] storage) {\n        return _ownedTokens[owner];\n    }\n\n    /**\n     * @dev Private function to add a token to this extension's ownership-tracking data structures.\n     * @param to address representing the new owner of the given token ID\n     * @param tokenId uint256 ID of the token to be added to the tokens list of the given address\n     */\n    function _addTokenToOwnerEnumeration(address to, uint256 tokenId) private {\n        _ownedTokensIndex[tokenId] = _ownedTokens[to].length;\n        _ownedTokens[to].push(tokenId);\n    }\n\n    /**\n     * @dev Private function to add a token to this extension's token tracking data structures.\n     * @param tokenId uint256 ID of the token to be added to the tokens list\n     */\n    function _addTokenToAllTokensEnumeration(uint256 tokenId) private {\n        _allTokensIndex[tokenId] = _allTokens.length;\n        _allTokens.push(tokenId);\n    }\n\n    /**\n     * @dev Private function to remove a token from this extension's ownership-tracking data structures. Note that\n     * while the token is not assigned a new owner, the _ownedTokensIndex mapping is _not_ updated: this allows for\n     * gas optimizations e.g. when performing a transfer operation (avoiding double writes).\n     * This has O(1) time complexity, but alters the order of the _ownedTokens array.\n     * @param from address representing the previous owner of the given token ID\n     * @param tokenId uint256 ID of the token to be removed from the tokens list of the given address\n     */\n    function _removeTokenFromOwnerEnumeration(address from, uint256 tokenId) private {\n        // To prevent a gap in from's tokens array, we store the last token in the index of the token to delete, and\n        // then delete the last slot (swap and pop).\n\n        uint256 lastTokenIndex = _ownedTokens[from].length.sub(1);\n        uint256 tokenIndex = _ownedTokensIndex[tokenId];\n\n        // When the token to delete is the last token, the swap operation is unnecessary\n        if (tokenIndex != lastTokenIndex) {\n            uint256 lastTokenId = _ownedTokens[from][lastTokenIndex];\n\n            _ownedTokens[from][tokenIndex] = lastTokenId; // Move the last token to the slot of the to-delete token\n            _ownedTokensIndex[lastTokenId] = tokenIndex; // Update the moved token's index\n        }\n\n        // This also deletes the contents at the last position of the array\n        _ownedTokens[from].length--;\n\n        // Note that _ownedTokensIndex[tokenId] hasn't been cleared: it still points to the old slot (now occupied by\n        // lastTokenId, or just over the end of the array if the token was the last one).\n    }\n\n    /**\n     * @dev Private function to remove a token from this extension's token tracking data structures.\n     * This has O(1) time complexity, but alters the order of the _allTokens array.\n     * @param tokenId uint256 ID of the token to be removed from the tokens list\n     */\n    function _removeTokenFromAllTokensEnumeration(uint256 tokenId) private {\n        // To prevent a gap in the tokens array, we store the last token in the index of the token to delete, and\n        // then delete the last slot (swap and pop).\n\n        uint256 lastTokenIndex = _allTokens.length.sub(1);\n        uint256 tokenIndex = _allTokensIndex[tokenId];\n\n        // When the token to delete is the last token, the swap operation is unnecessary. However, since this occurs so\n        // rarely (when the last minted token is burnt) that we still do the swap here to avoid the gas cost of adding\n        // an 'if' statement (like in _removeTokenFromOwnerEnumeration)\n        uint256 lastTokenId = _allTokens[lastTokenIndex];\n\n        _allTokens[tokenIndex] = lastTokenId; // Move the last token to the slot of the to-delete token\n        _allTokensIndex[lastTokenId] = tokenIndex; // Update the moved token's index\n\n        // This also deletes the contents at the last position of the array\n        _allTokens.length--;\n        _allTokensIndex[tokenId] = 0;\n    }\n}\n\ncontract ERC721Metadata is ERC721Enumerable, usingOraclize {\n    \n    // TODO: Create private vars for token _name, _symbol, and _baseTokenURI (string)\n\n    // TODO: create private mapping of tokenId's to token uri's called '_tokenURIs'\n    mapping(uint256 => string) private _tokenURIs;\n\n    bytes4 private constant _INTERFACE_ID_ERC721_METADATA = 0x5b5e139f;\n    /*\n     * 0x5b5e139f ===\n     *     bytes4(keccak256('name()')) ^\n     *     bytes4(keccak256('symbol()')) ^\n     *     bytes4(keccak256('tokenURI(uint256)'))\n     */\n\n\n    constructor (string memory name, string memory symbol, string memory baseTokenURI) public {\n        // TODO: set instance var values\n\n        _registerInterface(_INTERFACE_ID_ERC721_METADATA);\n    }\n\n    // TODO: create external getter functions for name, symbol, and baseTokenURI\n\n    function tokenURI(uint256 tokenId) external view returns (string memory) {\n        require(_exists(tokenId));\n        return _tokenURIs[tokenId];\n    }\n\n\n    // TODO: Create an internal function to set the tokenURI of a specified tokenId\n    // It should be the _baseTokenURI + the tokenId in string form\n    // TIP #1: use strConcat() from the imported oraclizeAPI lib to set the complete token URI\n    // TIP #2: you can also use uint2str() to convert a uint to a string\n        // see https://github.com/oraclize/ethereum-api/blob/master/oraclizeAPI_0.5.sol for strConcat()\n    // require the token exists before setting\n\n}\n\n//  TODO's: Create CustomERC721Token contract that inherits from the ERC721Metadata contract. You can name this contract as you please\n//  1) Pass in appropriate values for the inherited ERC721Metadata contract\n//      - make the base token uri: https://s3-us-west-2.amazonaws.com/udacity-blockchain/capstone/\n//  2) create a public mint() that does the following:\n//      -can only be executed by the contract owner\n//      -takes in a 'to' address, tokenId, and tokenURI as parameters\n//      -returns a true boolean upon completion of the function\n//      -calls the superclass mint and setTokenURI functions\n\n\n\n",
  "sourcePath": "C:/Users/gopis/udacity/Blockchain-Capstone/eth-contracts/contracts/ERC721Mintable.sol",
  "compiler": {
    "name": "solc",
    "version": "0.5.5+commit.47a71e8f.Emscripten.clang"
  },
  "schemaVersion": "3.4.1",
  "updatedAt": "2021-09-17T20:41:05.020Z",
  "devdoc": {
    "methods": {}
  },
  "userdoc": {
    "methods": {}
  }
}